:020000040800F2
:100000000000022009E20008D9D90008DBD9000865
:10001000DDD90008DFD90008E1D9000800000000A0
:100020000000000000000000000000000164000863
:10003000E3D900080000000091640008835C000818
:100040005DE200085DE200085DE200085DE2000894
:100050005DE200085DE200085DE200085DE2000884
:100060005DE200085DE200085DE200085DE2000874
:100070005DE200085DE200085DE200085DE2000864
:100080005DE200085DE200085DE200085DE2000854
:100090005DE200085DE200085DE200085DE2000844
:1000A0005DE200085DE200085DE200085DE2000834
:1000B0005DE200085DE200085DE200085DE2000824
:1000C0005DE200085DE200085DE200085DE2000814
:1000D0005DE200085DE200085DE200085DE2000804
:1000E0005DE200085DE20008000000005DE200083B
:1000F0005DE200085DE200085DE200085DE20008E4
:100100005DE200085DE200085DE200085DE20008D3
:100110005DE200085DE20008E5D900085DE2000844
:100120005DE200085DE200085DE200085DE20008B3
:100130005DE200085DE200085DE200085DE20008A3
:100140005DE200085DE20008000000000000000021
:100150005DE200085DE200085DE200085DE2000883
:100160005DE200085DE200085DE200085DE2000873
:100170005DE200085DE200085DE2000800000000AA
:100180005DE200085DE200085DE200085DE2000853
:100190005DE200085DE200085DE200085DE2000843
:1001A000F1D900085DE20008FDD900085DE2000811
:1001B0005DE200085DE200085DE200085DE2000823
:1001C0005DE200085DE200085DE200085DE2000813
:1001D0005DE200085DE200085DE200085DE2000803
:1001E0005DE200085DE200085DE200085DE20008F3
:1001F0005DE200085DE200085DE200085DE20008E3
:100200005DE200085DE200085DE200085DE20008D2
:100210005DE200085DE200085DE200085DE20008C2
:100220005DE2000809DA000815DA000831DA000892
:100230005DE200085DE200085DE200085DE20008A2
:100240005DE200085DE200085DE200085DE2000892
:100250005DE200085DE200085DE200085DE2000882
:100260005DE200085DE200085DE200085DE2000872
:100270005DE200085DE200085DE200085DE2000862
:100280005DE200085DE200085DE200080000000099
:080290005DE200085DE20008D8
:1002C00002780B78012A28BF9A4240F0D8806DE965
:1002D000044540EA0104CDE902676FF0000C4FEAE3
:1002E00044721AB380EA010414F0070F6BD100F0D6
:1002F000070420F0070004F0030521F007014FEA8E
:10030000C505F0E8042314F0040FF1E804670CFAC3
:1003100005F462EA040266EA04060BD063EA040309
:10032000624667EA0407664604E000BFF0E804237B
:10033000F1E8046782FA4CF582EA0604A4FA8CF428
:100340006CBB83FA4CF583EA0705A5FA8CF595B9E1
:1003500050E9022351E9026782FA4CF582EA060469
:10036000A4FA8CF483FA4CF583EA0705A5FA8CF518
:100370002543DBD09CB92DBAB5FA85F424F00704E7
:1003800027FA04F1DDE9026723FA04F303F0FF0022
:1003900001F0FF01FDE80445A0EB0100704724BA1D
:1003A000B4FA84F424F0070426FA04F1DDE90267C4
:1003B00022FA04F202F0FF0001F0FF01FDE804451B
:1003C000A0EB0100704714F0030F3CD110F00304C0
:1003D00028D150F8082B51F8083B82FA4CF582EAF4
:1003E0000305A5FA8CF55DB950F8042C51F8043CCE
:1003F00082FA4CF582EA0305A5FA8CF5002DE8D0C7
:100400002DBAB5FA85F424F0070423FA04F122FA90
:1004100004F202F0FF0001F0FF01FDE80445A0EB4B
:10042000010070474FEAC40420F0030050F8082B85
:1004300021F0030151F8083B0CFA04F462EA0402CB
:1004400063EA0403C9E710F003041DD0A1EB040123
:1004500020F00300E40750F8042B06D012D28B786A
:100460005FFAA2F4E41A06D12BB1CB785FFAB2F4AA
:10047000E41A00D133B920465DF8104B7047A2EB67
:100480000300704701F1040150F8042BCC0721F060
:10049000030151F8043B48D824D222F07F4482FA69
:1004A0004CF594EA1325A5FA8CF50AD165B951F8F3
:1004B000043B84EA0204B4EB036F0ED150F8042B22
:1004C000EBE74FEA132355E035F07F454DD108782F
:1004D000FDE80445C0F1000070474FEA126203F0E6
:1004E000FF0347E002EA1C4482FA4CF594EA134504
:1004F000A5FA8CF50AD165B951F8043B84EA0204E7
:10050000B4EB034F0CD150F8042BEBE74FEA134345
:1005100030E015EA1C4528D10B884FEA124229E049
:100520004FEA124203EA1C4324E002F0FF0482FA7D
:100530004CF594EA1365A5FA8CF50AD165B951F822
:10054000043B84EA0204B4EB032F09D150F8042BD6
:10055000EBE74FEA13630DE015F0FF0F05D10B68D1
:100560004FEA122223F07F4304E04FF00000FDE841
:100570000445704712BA1BBA82FA4CF482EA0304AB
:10058000A4FA8CF5B5FA85F402FA04F203FA04F33E
:100590004FEA1260FDE80445A0EB1360704700BF0E
:1005A00001F0FF01102A2BDB10F0070F08D010F824
:1005B000013B013A8B422DD010F0070F42B3F6D128
:1005C000F0B441EA012141EA014122F007047FF041
:1005D00000070023F0E80256083C85EA010586EA98
:1005E000010685FA47F5A3FA87F586FA47F6A5FAD4
:1005F00087F68EB9EED1F0BC01F0FF0102F00702E0
:1006000032B110F8013B013A83EA010313B1F8D18A
:100610000020704701387047002D06BF354603386B
:10062000073815F0010F07D1013015F4807F02BFA4
:10063000013015F4C03F0130F0BC0138704700BFF5
:10064000844641EA000313F003036DD1403A41D3DD
:1006500051F8043B40F8043B51F8043B40F8043B9C
:1006600051F8043B40F8043B51F8043B40F8043B8C
:1006700051F8043B40F8043B51F8043B40F8043B7C
:1006800051F8043B40F8043B51F8043B40F8043B6C
:1006900051F8043B40F8043B51F8043B40F8043B5C
:1006A00051F8043B40F8043B51F8043B40F8043B4C
:1006B00051F8043B40F8043B51F8043B40F8043B3C
:1006C00051F8043B40F8043B51F8043B40F8043B2C
:1006D000403ABDD2303211D351F8043B40F8043BCC
:1006E00051F8043B40F8043B51F8043B40F8043B0C
:1006F00051F8043B40F8043B103AEDD20C3205D3DC
:1007000051F8043B40F8043B043AF9D2043208D0D3
:10071000D2071CBF11F8013B00F8013B01D30B8845
:1007200003806046704700BF082A13D38B078DD023
:1007300010F003038AD0C3F10403D21ADB071CBFF5
:1007400011F8013B00F8013B80D331F8023B20F85F
:10075000023B7BE7043AD9D3013A11F8013B00F898
:10076000013BF9D20B7803704B7843708B78837020
:10077000604670470000000000000000000000001C
:1007800030B490F800F020F007016FF0000C10F08A
:10079000070491F820F040F048804FF000046FF01B
:1007A0000700D1E9002391F840F000F1080082FA37
:1007B0004CF2A4FA8CF283FA4CF3A2FA8CF34BBB02
:1007C000D1E9022382FA4CF200F10800A4FA8CF27B
:1007D00083FA4CF3A2FA8CF3E3B9D1E9042382FA49
:1007E0004CF200F10800A4FA8CF283FA4CF3A2FA5E
:1007F0008CF37BB9D1E9062301F1200182FA4CF296
:1008000000F10800A4FA8CF283FA4CF3A2FA8CF3FC
:10081000002BC6D0002A04BF04301A4612BAB2FA1E
:1008200082F200EBD20030BC7047D1E9002304F023
:100830000305C4F100004FEAC50514F0040F91F858
:1008400040F00CFA05F562EA05021CBF63EA0503F5
:1008500062464FF00004AAE781F0004102E000BFC9
:1008600083F0004330B54FEA41044FEA430594EA70
:10087000050F08BF90EA020F1FBF54EA000C55EAAB
:10088000020C7FEA645C7FEA655C00F0E2804FEA7C
:100890005454D4EB5555B8BF6D420CDD2C4480EA5E
:1008A000020281EA030382EA000083EA010180EA8E
:1008B000020281EA0303362D88BF30BD11F0004FDC
:1008C0004FEA01314FF4801C4CEA113102D0404212
:1008D00061EB410113F0004F4FEA03334CEA13334D
:1008E00002D0524263EB430394EA050F00F0A78065
:1008F000A4F10104D5F1200E0DDB02FA0EFC22FA60
:1009000005F2801841F1000103FA0EF2801843FA53
:1009100005F359410EE0A5F120050EF1200E012A44
:1009200003FA0EFC28BF4CF0020C43FA05F3C01882
:1009300051EBE37101F0004507D54FF0000EDCF1FB
:10094000000C7EEB00006EEB0101B1F5801F1BD3A4
:10095000B1F5001F0CD349085FEA30004FEA3C0CA8
:1009600004F101044FEA445212F5800F80F09A809E
:10097000BCF1004F08BF5FEA500C50F1000041EBA2
:10098000045141EA050130BD5FEA4C0C404141EBA6
:100990000101013C28BFB1F5801FE9D291F0000FA1
:1009A00004BF01460020B1FA81F308BF2033A3F150
:1009B0000B03B3F120020CDA0C3208DD02F1140C47
:1009C000C2F10C0201FA0CF021FA02F10CE002F182
:1009D0001402D8BFC2F1200C01FA02F120FA0CFC7B
:1009E000DCBF41EA0C019040E41AA2BF01EB0451C4
:1009F000294330BD6FEA04041F3C1CDA0C340EDCC2
:100A000004F11404C4F1200220FA04F001FA02F304
:100A100040EA030021FA04F345EA030130BDC4F1C2
:100A20000C04C4F1200220FA02F001FA04F340EAB7
:100A30000300294630BD21FA04F0294630BD94F068
:100A4000000F83F4801306BF81F480110134013D4F
:100A50004EE77FEA645C18BF7FEA655C29D094EAC0
:100A6000050F08BF90EA020F05D054EA000C04BF3E
:100A70001946104630BD91EA030F1EBF0021002029
:100A800030BD5FEA545C05D14000494128BF41F0C8
:100A9000004130BD14F580043CBF01F5801130BD2C
:100AA00001F0004545F0FE4141F470014FF00000B7
:100AB00030BD7FEA645C1ABF194610467FEA655C68
:100AC0001CBF0B46024650EA013406BF52EA03350A
:100AD00091EA030F41F4002130BD00BF90F0000FF8
:100AE00004BF0021704730B54FF4806404F1320434
:100AF0004FF000054FF0000150E700BF90F0000FED
:100B000004BF0021704730B54FF4806404F1320413
:100B100010F0004548BF40424FF000013EE700BFE3
:100B200042004FEAE2014FEA31014FEA02701FBF73
:100B300012F07F4393F07F4F81F06051704732F0A5
:100B40007F4208BF704793F07F4F04BF41F40021FC
:100B5000704730B54FF4607401F0004521F000415A
:100B60001CE700BF50EA010208BF704730B54FF0E4
:100B700000050AE050EA010208BF704730B511F0E5
:100B8000004502D5404261EB41014FF4806404F11D
:100B900032045FEA915C3FF4D8AE4FF003025FEAA3
:100BA000DC0C18BF03325FEADC0C18BF033202EB27
:100BB000DC02C2F1200300FA03FC20FA02F001FA81
:100BC00003FE40EA0E0021FA02F11444BDE600BF24
:100BD00070B54FF0FF0C4CF4E06C1CEA11541DBFD3
:100BE0001CEA135594EA0C0F95EA0C0F00F0DEF89E
:100BF0002C4481EA030621EA4C5123EA4C5350EA83
:100C0000013518BF52EA033541F4801143F48013D3
:100C100038D0A0FB02CE4FF00005E1FB02E506F064
:100C20000042E0FB03E54FF00006E1FB03569CF0B9
:100C3000000F18BF4EF0010EA4F1FF04B6F5007FBF
:100C400064F5407404D25FEA4E0E6D4146EB060631
:100C500042EAC62141EA55514FEAC52040EA5E50BA
:100C60004FEACE2EB4F1FD0C88BFBCF5E06F1ED864
:100C7000BEF1004F08BF5FEA500E50F1000041EB9B
:100C8000045170BD06F0004646EA010140EA020048
:100C900081EA0301B4EB5C04C2BFD4EB0C0541EA6A
:100CA000045170BD41F480114FF0000E013C00F37F
:100CB000AB8014F1360FDEBF002001F0004170BDA3
:100CC000C4F10004203C35DA0C341BDC04F11404BC
:100CD000C4F1200500FA05F320FA04F001FA05F248
:100CE00040EA020001F0004221F0004110EBD37015
:100CF00021FA04F642EB06015EEA430E08BF20EA41
:100D0000D37070BDC4F10C04C4F1200500FA04F3E3
:100D100020FA05F001FA04F240EA020001F0004175
:100D200010EBD37041F100015EEA430E08BF20EAE8
:100D3000D37070BDC4F1200500FA05F24EEA020E30
:100D400020FA04F301FA05F243EA020321FA04F05F
:100D500001F0004121FA04F220EA020000EBD37016
:100D60005EEA430E08BF20EAD37070BD94F0000F16
:100D70000FD101F00046400041EB010111F4801F4A
:100D800008BF013CF7D041EA060195F0000F18BFFB
:100D9000704703F00046520043EB030313F4801F37
:100DA00008BF013DF7D043EA0603704794EA0C0FF1
:100DB0000CEA135518BF95EA0C0F0CD050EA410607
:100DC00018BF52EA4306D1D181EA030101F0004184
:100DD0004FF0000070BD50EA410606BF10461946AC
:100DE00052EA430619D094EA0C0F02D150EA0136B8
:100DF00013D195EA0C0F05D152EA03361CBF1046F9
:100E000019460AD181EA030101F0004141F0FE4197
:100E100041F470014FF0000070BD41F0FE4141F41B
:100E2000780170BD70B54FF0FF0C4CF4E06C1CEA1B
:100E300011541DBF1CEA135594EA0C0F95EA0C0FD0
:100E400000F0A7F8A4EB050481EA030E52EA03358B
:100E50004FEA013100F088804FEA03334FF08055AC
:100E600045EA131343EA12634FEA022245EA1115D9
:100E700045EA10654FEA00260EF000419D4208BF8A
:100E8000964244F1FD0404F5407402D25B084FEA37
:100E90003202B61A65EB03055B084FEA32024FF4E3
:100EA00080104FF4002CB6EB020E75EB030E22BF40
:100EB000B61A754640EA0C005B084FEA3202B6EB00
:100EC000020E75EB030E22BFB61A754640EA5C00AF
:100ED0005B084FEA3202B6EB020E75EB030E22BF3F
:100EE000B61A754640EA9C005B084FEA3202B6EB40
:100EF000020E75EB030E22BFB61A754640EADC00FF
:100F000055EA060E18D04FEA051545EA16754FEA60
:100F100006164FEAC30343EA52734FEAC2025FEA7E
:100F20001C1CC0D111F4801F0BD141EA00014FF00D
:100F300000004FF0004CB6E711F4801F04BF0143DE
:100F40000020B4F1FD0C88BFBCF5E06F3FF6AFAEFA
:100F5000B5EB030C04BFB6EB020C5FEA500C50F18A
:100F6000000041EB045170BD0EF0004E4EEA11310D
:100F700014EB5C04C2BFD4EB0C0541EA045170BD14
:100F800041F480114FF0000E013C90E645EA060E58
:100F90008DE60CEA135594EA0C0F08BF95EA0C0F86
:100FA0003FF43BAF94EA0C0F0AD150EA01347FF4CE
:100FB00034AF95EA0C0F7FF425AF104619462CE7A5
:100FC00095EA0C0F06D152EA03353FF4FDAE104608
:100FD000194622E750EA410618BF52EA43067FF459
:100FE000C5AE50EA41047FF40DAF52EA43057FF4E9
:100FF000EBAE12E74FF0FF3C06E000BF4FF0010CF4
:1010000002E000BF4FF0010C4DF804CD4FEA410C57
:101010007FEA6C5C4FEA430C18BF7FEA6C5C1BD024
:1010200001B050EA410C0CBF52EA430C91EA030FA5
:1010300002BF90EA020F0020704710F1000F91EA02
:10104000030F58BF994208BF90422CBFD8176FEAD0
:10105000E37040F0010070474FEA410C7FEA6C5C9E
:1010600002D150EA013C07D14FEA430C7FEA6C5CA5
:10107000D6D152EA033CD3D05DF8040B704700BFD1
:101080008446104662468C461946634600E000BF1F
:1010900001B5FFF7B7FF002848BF10F1000F01BDF1
:1010A0004DF808EDFFF7F4FF0CBF012000205DF8BC
:1010B00008FB00BF4DF808EDFFF7EAFF34BF012041
:1010C00000205DF808FB00BF4DF808EDFFF7E0FFDA
:1010D00094BF012000205DF808FB00BF4DF808ED2B
:1010E000FFF7CEFF94BF012000205DF808FB00BF92
:1010F0004DF808EDFFF7C4FF34BF012000205DF874
:1011000008FB00BF4FEA410C7FEA6C5C02D150EA59
:10111000013C0AD14FEA430C7FEA6C5C02D152EAEF
:10112000033C02D14FF0000070474FF001007047C0
:101130004FEA410212F5001215D211D56FF47873FF
:10114000B3EB625212D94FEAC12343F0004343EAA2
:10115000505311F0004F23FA02F018BF404270477D
:101160004FF00000704750EA013005D111F0004007
:1011700008BF6FF0004070474FF00000704700BF9D
:1011800000F1340191E838009C46A6464CF8045D15
:1011900090E8FF0FE54600BD90EC210B704700BFC3
:1011A00080EC210B704700BF90EC200B704700BF14
:1011B00080EC200B704700BFD0EC200B704700BFC5
:1011C000C0EC200B704700BFF0EC0201F0EC021104
:1011D000F0EC0221F0EC0231F0EC0241F0EC0251B3
:1011E000F0EC0261F0EC0271F0EC0281F0EC0291A3
:1011F000F0EC02A1F0EC02B1F0EC02C1F0EC02D193
:10120000F0EC02E1F0EC02F1704700BFE0EC02010B
:10121000E0EC0211E0EC0221E0EC0231E0EC0241F2
:10122000E0EC0251E0EC0261E0EC0271E0EC0281E2
:10123000E0EC0291E0EC02A1E0EC02B1E0EC02C1D2
:10124000E0EC02D1E0EC02E1E0EC02F1704700BF1B
:10125000B0FC0181B0FC0191B0FC01A1B0FC01B176
:10126000704700BFA0FC0181A0FC0191A0FC01A17E
:10127000A0FC01B1704700BFEC4600B52DE900505D
:101280002DE9FF1F4FF000032DE90C0001A92FF0FD
:1012900087F9DDF840E012B0704700BFEC4600B5BA
:1012A0002DE900502DE9FF1F4FF000032DE90C0040
:1012B00001A92FF0B1F9DDF840E012B0704700BF8E
:1012C000EC4600B52DE900502DE9FF1F4FF000035B
:1012D0002DE90C0001A92FF0C1F9DDF840E012B0B2
:1012E000704700BFEC4600B52DE900502DE9FF1F07
:1012F0004FF000032DE90C0001AB2FF085F9DDF86C
:1013000040E012B0704700BFEC4600B52DE9005038
:101310002DE9FF1F4FF000032DE90C0001AA2FF06B
:10132000FDF9DDF840E012B0704700BF0348044B00
:10133000834202D0034B03B118477047BC07002417
:10134000BC070024000000000548064B1B1AD90FFB
:1013500001EBA301491002D0034B03B118477047BA
:10136000BC070024BC0700240000000010B5064C98
:10137000237843B9FFF7DAFF044B13B10448AFF306
:1013800000800123237010BDC09F002400000000D6
:10139000F810030808B5054B1BB105490548AFF324
:1013A0000080BDE80840FFF7CFBF00BF000000008D
:1013B000C49F0024F8100308704704387047704732
:1013C00010B50446102120F0BDF8204610BDA0F154
:1013D0000400F5E70022C1608260024A0260183210
:1013E0004260704758110308704770477047704754
:1013F000034B10B50446036000F081F8204610BD91
:101400008011030810B50446FFF7F2FFF8212046CB
:1014100020F098F8204610BD10B5044600F0CAF838
:10142000014B2046236010BD8011030800F068B80E
:101430000022026070477047704700F59873086893
:10144000496803C37047704700F048BB10B50446B5
:101450004FF4AE7120F076F8204610BD10B504466A
:10146000D0F85801FFF7E7FF2046BDE8104011F023
:1014700035BF10B50446D0F8400158B10368DB68A9
:10148000984738B1D4F8400103689B689847002317
:10149000C4F8403110BD000010B5044600F0EEFA6B
:1014A000014B2046236010BDB8110308002070478F
:1014B00081807047C18070470181704741817047CA
:1014C0007047704770477047704710B4C48803680E
:1014D000121B84885B6D091B12B25DF8044B09B2C4
:1014E00018474FF6FF7383814FF0FF330362136891
:1014F000C36110607047704770477047704770470E
:101500000368DB6A184730B444680346C2689B68C6
:10151000551004EB6200D20748BF625930BC48BF87
:10152000D35818470346406830B19A681AB9D8684A
:1015300000F0010070470120704781857047808D61
:10154000704710B504463C211FF0FCFF204610BD3B
:1015500010B5044610211FF0F5FF204610BD10B550
:101560000446F8211FF0EEFF204610BD90F825201C
:1015700012B103685B691847704708B590F82830C6
:101580000BB1FFF7F3FF08BD90F825201AB190F8D2
:10159000242002B118607047036870B504461B6BC5
:1015A000154698472368204629465B6BBDE8704086
:1015B000184700002DE9F341044613F0E9FD424BC2
:1015C00000254FF4807204F16C06236001A93F4BA3
:1015D0003046A4F8642004F14007A4F8902004F1F8
:1015E00004083B4AE563E2662566A566C4E9103552
:1015F000FF2384F866304FF6FF73C4E91255A4F850
:10160000923084F89430ADF80430C4E91455C4E93C
:101610001655C4E91C55C4E91E55C4E92055C4E952
:1016200022550FF022FD2B4A2B4B2946384684F8D1
:101630009550E366294BA4F89650A4F89850C4F846
:10164000A450C4E92C25264AC4E93025254AC4E91A
:101650002A34C4E92E34C4E93234C4E93425C4E957
:101660003634C4E93A34204A204BC4E93825C4E969
:101670003C352A46FFF790FF38464FF44871FFF794
:101680001BFF38464FF4F071FFF718FF4FF07F4310
:1016900039464046A3660CF01CFEB0223046FE21BF
:1016A000FFF77AFF01A93046ADF804500FF0DDFCDA
:1016B000F6234046314684F894300CF00AFE20466A
:1016C00002B0BDE8F08100BF98120308E0390308BA
:1016D000483A0308ED1700080C12030880120308AB
:1016E0001118000835180008591800087D1800085E
:1016F00090F8293070B50446002B40D0408DA38D62
:10170000013080B29842608539D3258EC01A628E2E
:101710000021E38D80B2521B666B12B2B0470544C4
:1017200094F82820ABB22DB2AA4205D00DBB2046BA
:10173000FFF723FF84F82850A38DE18D628D0B44C1
:101740009A421CD3002384F82930E38511F024FD4C
:101750002146043011F045FDA06B80B10368DB68C1
:10176000984760B1A06B21460368BDE870409B6854
:101770001847204684F82830FFF7FFFEDCE770BDED
:1017800008B5FFF7B5FF08BDF8B51D4690F829303C
:1017900004460F4616462BB911F0FEFC21460430D4
:1017A00011F0CEFD0023E6856786638594F8283026
:1017B00065632386012384F82930E36A13B9204640
:1017C000FFF796FFF8BD00000021074B5A2210B525
:1017D0000446C0F8A4106C30FFF7D6FF04F1A8034C
:1017E000C4F8A43010BD00BF2F55010800235A22B1
:1017F000FF2110B50446C0F8A430044B6C30FFF74D
:10180000C3FF04F1B803C4F8A43010BD2B55010880
:101810000021074B5A2210B50446C0F8A4106C30C2
:10182000FFF7B2FF04F1C803C4F8A43010BD00BF35
:101830002F55010800235A22FF2110B50446C0F895
:10184000A430044B6C30FFF79FFF04F1D803C4F8B9
:10185000A43010BD2B5501080021074B5A2210B5AA
:101860000446C0F8A4106C30FFF78EFF04F1E803C3
:10187000C4F8A43010BD00BF2F55010808B50023DF
:101880005A22FF216C308363014BFFF77DFF08BDB7
:101890002B5501087047704770474160704770478B
:1018A0007047012303727047704710B441680346C4
:1018B000C2689B68541001EB6200D20748BF0A5906
:1018C0005DF8044B48BFD35818470346406830B111
:1018D0009A681AB9D86800F0010070470120704773
:1018E00010B504460C211FF02DFE204610BD10B58A
:1018F000044610211FF026FE204610BD10B50446F8
:101900004FF4AE711FF01EFE204610BD10B511F051
:1019100043FC0368BDE81040DB6B18472DE9F14F2D
:10192000D0E9556A0746B06803681B6A9847F728EC
:1019300005D8444BA321444A444828F075F97068FF
:1019400003681B6A98470F2803D8414BA4213E4ADD
:10195000F2E7F06803681B6A98470B2803D83D4BF1
:10196000A521394AE8E7DFF8F49011F015FC0430BE
:1019700011F052FCD9F8000010B10368DB689847F9
:10198000D9F8000010B103681B689847DFF8D080D1
:10199000D8F8000010B103685B699847D7F83C019C
:1019A00010B103685B689847D8F8000010B103686D
:1019B0001B689847D7F83C0110B103689B689847AB
:1019C000F06800214FF0000B03685B6A9847224BD8
:1019D0000446C0F804B080F808B059460360B06807
:1019E00003685B6A98470546FFF716FD706859461D
:1019F00003685B6A984706462946FFF7EBFC331DF0
:101A0000C7F83C612846C9F80040C8F80050CAF839
:101A100000302B68C6F808A0DB68EE63984733688F
:101A200030461B6898472146284613F04CFD236832
:101A300020461B699847236820465B6901B0BDE8D2
:101A4000F04F1847C8120308561303082814030858
:101A50006D140308101503085C2F0308145A0224A0
:101A6000185A0224044B1B6893F85C200AB1186DC5
:101A700000B99868704700BFCC59022470B516466B
:101A800004460D4611F09EFC104B00211C60104BCB
:101A90002360104BC4E951310F4B1868C4E953114E
:101AA0000368C4E94F119B68C4E955659847FFF77F
:101AB000D9FF19F0E2FFFFF7D5FF1AF055F8FFF74D
:101AC000D1FF1AF05DF8204670BD00BF1C5A0224F9
:101AD000082F0308F02E0308CC590224064BC0F847
:101AE0004801C0F84C310023C0F8503100F5A27312
:101AF000C0F84031704700BF1D19000813B500241D
:101B000051B1036801AA01948DF803409C680DF15E
:101B10000303A04702B010BD0846FBE7C089704729
:101B2000008A7047C088704780887047807A00F0CC
:101B30007F007047807AC00970470020704700001E
:101B40009FED010A704700BF00000000406A704727
:101B5000806A704770470B888A889BB2D20A10B59A
:101B60004C88C16943EA044351F82200184410BD6F
:101B700010B50446BAB1107B68B1537BD27A1B0210
:101B800003F4E0631A43236A03EB82031A888A4250
:101B900002D193F9020010BD05D80138043380B298
:101BA0000028F3D1F7E70020F5E710B504462C2113
:101BB0001FF0C8FC204610BD30B58BB00446BDF800
:101BC00060500895BDF85C5007959DF850500695FB
:101BD0009DF84C5005959DF8485004959DF844504B
:101BE00003959DF8405002959DF83C500195BDF835
:101BF0003850009513F0DAF8064B20462360159B09
:101C0000E361169B2362199B63621A9BA3620BB06C
:101C100030BD00BF802F03087047000030B5164D5F
:101C20008FB02C68BFF35B8F14F0010420D12846DD
:101C30001FF08AFCE0B13F23012210490993104BA9
:101C400010480893104B0A940594CDE906430423E9
:101C5000CDE903320A23CDE90B440093CDE90144D9
:101C6000FFF7AAFF094827F0FFFF28461FF088FC6E
:101C700004480FB030BD00BFDC9F0024785B030830
:101C8000C85B0308E09F0024C45B0308191C00081C
:101C900010B5002404600C6014601C6010BD704717
:101CA00030B5164D8FB02C68BFF35B8F14F0010474
:101CB00020D128461FF048FCE0B13F230122104903
:101CC0000993104B10480893104B0A940594CDE9E2
:101CD00006430423CDE903322823CDE90B440093C6
:101CE000CDE90144FFF768FF094827F0BDFF28460A
:101CF0001FF046FC04480FB030BD00BF0CA000240C
:101D0000A05B0308C05B030810A00024D05B03089D
:101D10009F1C00087047000030B5164D8FB02C682E
:101D2000BFF35B8F14F0010420D128461FF00CFC98
:101D3000E0B13F23012210490993104B104808934A
:101D4000104B0A940594CDE906430423CDE90332F0
:101D50001423CDE90B440093CDE90144FFF72CFF98
:101D6000094827F081FF28461FF00AFC04480FB0FD
:101D700030BD00BF3CA00024B05B0308CC5B03086F
:101D800040A00024D45B0308151D0008704710B55F
:101D9000044604211FF0D6FB204610BD012908B5DA
:101DA00006D0022908D059B900F014F8006808BD1F
:101DB00000F010F84068FAE700F00CF88068F6E7E9
:101DC0000020F4E700487047F42F03080120704713
:101DD00000207047004870476CA0002410B5054CE7
:101DE000FFF79AFF2060FFF75BFF6060FFF716FFC9
:101DF000A06010BD6CA00024002070470020704738
:101E00000EB403B503AB002153F8042B019312F079
:101E100055FA02B05DF804EB03B070470CB407B597
:101E200004AB53F8042B019312F048FA03B05DF8A9
:101E300004EB02B070470000436C10B5044673B366
:101E4000038F2BB9184BC521184A194827F0ECFE0F
:101E5000C38E00EB43035B8C0BB314F019F8238F94
:101E6000012B03D8134BCB21134AEEE7E28E40F649
:101E70003F10531C9BB2092B194688BFA3F10A01DE
:101E800004EB4101498C814209D10A2B04EB420247
:101E900028BF0023508C04EB430358845184204610
:101EA000BDE8104013F0F8BEB3150308BC150308D5
:101EB00067160308AF160308BD16030813F0B4BE77
:101EC00038B518BB124B13481C681349B4B12268CB
:101ED00022440260626822440A60A26814440F4BE4
:101EE00000221A80FFF776FF0546FFF771FF0C4BC3
:101EF0001C600C4B1D600C4B188007E00B4B036003
:101F00000B4B0B600B4B1C68002CE8D138BD00BF9D
:101F100084A000247CA0002478A0002480A00024B9
:101F20002C5A0224245A0224205A02248C53019051
:101F30008453019008300308012380F87C1080F856
:101F40007D30704770470020704700008164003981
:101F5000024B18BF01211970704700BFBF590224FE
:101F6000704700207047C36B0BB108461847704795
:101F70004FF6FF707047406803689B6918477047C9
:101F80007047002070478B8883800120704770471E
:101F900080F82610704790F82600704710B5002290
:101FA000B1F90840B1F90A10028042808480C180F2
:101FB00010BD0022028042808280C280704701777B
:101FC000704780ED080A704780F82410704780F849
:101FD0002510704701207047983070478C3070474B
:101FE000843070477047704770470000024B902262
:101FF00083F85A23704700BF00E100E07047016397
:10200000C0E90D217047704700EB81001146406820
:102010000368DB68184780F83C10704710B5044629
:1020200048211FF08FFA204610BD10B504462C2120
:102030001FF088FA204610BD10B50446BC211FF0E1
:1020400081FA204610BD000038B504460CF033FC80
:1020500023689D6E11F0A0F801462046A84723682A
:1020600008492046D3F88C5000231A46A8476368D5
:10207000054A5364054B5A60054A1A639A63054A38
:102080005A6338BD009411D090A1002448A10024C7
:10209000000000D00094110038B504460D46406C95
:1020A0004FF0FF3103F0B0FE606C03F0D2FE24234A
:1020B00003FB0545002385F8283094F828300BB938
:1020C000236BA36338BD0CF0A6BB0CF012BD10B59A
:1020D00004460DF0A5F923682046D3F8BC30BDE8CE
:1020E0001040184710B504460CF0C4FC6068036843
:1020F000BDE810401B69184790F838100D4B10B51B
:1021000090F87C401A788C4209D03AB90A490B4AB7
:1021100008881488108001220C801A7010BD002AD3
:10212000FCD0064A0449148808880C8010800022DC
:10213000F3E700BFBE590224C6590224C85902243D
:10214000124A5369DB0370B51ED50023C2F88430F0
:10215000BFF34F8FD2F8803043F6E074C3F3C90069
:10216000C3F34E335B0103EA0406014646EA817578
:102170000139C2F87452F9D2203B13F1200FF2D189
:10218000BFF34F8FBFF36F8F70BD00BF00ED00E056
:1021900008B5094B1B888B4203D8084B1B88934218
:1021A00005D9074BA521074A074827F03DFD074BF6
:1021B0001980074B1A8008BDC8590224C659022449
:1021C0008F170308F217030835180308C4590224AF
:1021D000C259022408B531B1044B4FF4B871044A16
:1021E000044827F021FD90F8290008BD781803085D
:1021F0008C180308161A030810B531B1064B4FF4BA
:10220000B571064A064827F00FFD4068114603687D
:10221000BDE810401B6B184778180308571A0308CD
:10222000161A030808B529B1034B7921034A04485B
:1022300027F0FAFCC06808BD78180308051C0308DD
:10224000161A030810B5044629B1194BA221194AE0
:10225000194827F0E9FC052A15D8DFE802F0031138
:1022600015171C22406803681B69984758B1012361
:1022700084F8293084F82C300023C4E9043302E0C8
:10228000002380F8293010BD0362F5E703620123C3
:1022900080F82A30F0E7002380F829300123036218
:1022A000F1E7003B18BF012380F82D30EBE700BFBA
:1022B00078180308BA1D0308161A030810B50C464F
:1022C00011461A462CB1064B9021064A064827F0C3
:1022D000ABFCC46040680368BDE810409B681847C9
:1022E000781803088E1F0308161A030808B529B1C9
:1022F000054B8221054A064827F096FCC0E90411E7
:10230000C0E9063208BD00BF781803086921030838
:10231000161A030890F83D3010B5044653B14FF03B
:10232000FF31406C03F070FD002384F83D30012341
:1023300084F83E3010BD000010B50446104629B1A7
:10234000134BD021134A144827F06EFC94F829301F
:1023500033B1124B1B6893F86F20636913446361B8
:1023600094F82B300BB9012010BDA36803630368F8
:102370005B699847002394F82C0084F82B300028E0
:10238000F1D194F82D30002BEED184F82900EBE741
:102390007818030825230308161A0308CC590224C9
:1023A00070B51A4C05460CF079FA94F8293013B937
:1023B00094F82A30ABB1E169D4E90532534322697C
:1023C0004A4393420DD394F83C0038B19B1AB3FBB7
:1023D000F1F2994298BF02F1FF326262012384F860
:1023E0002E300123206C84F83D3003F0D5FD94F8A5
:1023F0003E302BB1606C03F02CFD002384F83E309E
:1024000068680368BDE870401B69184748A100244C
:10241000044B4FF08062C3F88820BFF34F8FBFF3A7
:102420006F8F704700E100E0024B4FF080629A60CE
:10243000704700BF00E100E0034690F87E0018B14D
:10244000586803681B68184770470000F8B50346D2
:1024500090F82800D8B94FF480729E6B0125D8609F
:102460009A8506F58C12186102F5A05258619861A0
:10247000D861186258629D6283F82E00D3E90C4738
:102480003C44A2420AD90B4B52210B4A03E00B4BAE
:1024900040F2C5110A4A0B4827F0C6FB9E609A63BA
:1024A0004FF4487381F83450CB864FF4F0730863CF
:1024B0000B87F8BD7D260308B8260308C624030849
:1024C000F6240308161A0308002370B5124E0446BA
:1024D0008380124B0360336893F85C200AB1186D57
:1024E00000B9986803681B6B9847431E5D425D41C5
:1024F0003368186D30B103681B6B9847012808BF1B
:1025000045F001052DB9064B2721064A064827F05C
:102510008BFB204670BD00BFCC5902241430030849
:102520005B280308B9280308F228030870B5254E74
:102530003568BFF35B8F15F0010540D130461FF0C1
:1025400003F800283BD0204C204B04F134002561D7
:10255000E584A562A585C4E90035C4E9025512F0F9
:1025600068FB04F158000EF02BFD194B2046A365C3
:10257000184B40F8843BFFF7A7FF174B1748C4F8E8
:1025800084302433C4F89050C4F88C304FF4C8031E
:10259000C4F89C50C4F8A850C4E928350023C4F8F6
:1025A000AC30C4F8B030C4F8B430C4F8B8300C4B18
:1025B000C4F8983027F058FB30461EF0E1FF02487F
:1025C00070BD00BF88A000248CA00024C43803087C
:1025D00034300308AC30030810390308E91F000841
:1025E000483903082DE9F743044601264FF41667DE
:1025F0004FF0FF31206C03F09DFC4FF0FF31606C19
:1026000003F002FC94F82E3043B36568D4F82080C0
:102610002B6884F82B60B8F1000F23D05B6A414629
:1026200028469847002323622B684FF4487200978E
:102630002846D3F814804FF4F073A168C04723698B
:1026400084F82C0001332361F0B12B6828469B6A83
:10265000984701380023E06084F82E30606C03F066
:10266000F8FBC5E7626A002ADED02846D3E9099361
:102670009847616A01442846C8472369626AC4F8DA
:10268000248013442361CFE70120E3E7014808B524
:10269000FFF7A8FF48A1002438B51448002500F032
:1026A000A3FC134C134B2A462946012023604FF408
:1026B0008073A563A387A38584F83E5084F82E50C9
:1026C000C4E90C55C4E91055C4E90155C4E90355E2
:1026D000C4E90555C4E90755C4E9095503F0DBFB16
:1026E0002064284603F05BFB606438BD90A10024A1
:1026F00048A10024F830030803685B6C18470120E8
:102700007047FEE740F2EF307047000010B5044616
:102710004FF0FF31D0F8A40D03F076FB606803683A
:102720001B68984778B9637A6BB1237A5BB984F8F0
:10273000A03D204623685B6A9847D4F8A40DBDE805
:10274000104003F086BB0B490B4A0B681B01D35C9E
:10275000012BF2D1207A0028EFD1A07A0028ECD109
:10276000086884F8A03D02EB0010237201F046F8DF
:10277000E3E700BF5CB300240C000024054B4FF0DE
:1027800080620360044BC3F88820BFF34F8FBFF310
:102790006F8F70473C31030800E100E010B504463C
:1027A00040F6A851FFF7EAFF20461EF0CBFE204678
:1027B00010BD0000104B82B0D3F8D42042F01002BC
:1027C000C3F8D420D3F8D42002F010020192019A69
:1027D000DA6F42F01002DA67DA6F22F01002DA677D
:1027E000064B074A5A62074A1A62074B4FF080624B
:1027F0009A6002B0704700BF00440258DC580224BF
:1028000003270008512A000800E100E008B50A2863
:1028100009D8DFE800F006100E08080808101010AC
:102820001000022008BD054B9121054A054827F0FC
:10283000FBF90020F6E70120F4E700BF5229030866
:102840006D290308B829030838B50C46887FFFF7BF
:10285000DDFF124BA58AE28A586342EA05422169EC
:102860005A64628BD963521B1A642568082D0ED1F5
:102870009A611A6158620A4A207F42EA0062DA616C
:10288000E2681A62074A5961D9601A6038BD0022AD
:10289000D8611A61E2689A63034AF6E700100052B1
:1028A00009000100012302000123030008B50B28E1
:1028B0000BD8DFE800F00612100A0A0A0A08080816
:1028C0000808022008BD0520FCE7054B7021054AD9
:1028D000054827F0A9F90020F4E70120F2E700BF3E
:1028E00052290308E3290308B82903082DE9F8430E
:1028F0004F7F89463846FFF7D9FF99F81E5080462A
:102900002846FFF7D3FF06462846FFF77FFFB9F8B2
:102910001410B9F81A40B9F81820454B641A521A25
:102920001C649C611A61B9F81620586342EA01429E
:10293000D9F810105A64D9F80420D963DA60D9F8AC
:10294000004099F81C20802C22D00FD8202C66D073
:10295000402C64D0042C5CD048EA0260344BAF4277
:1029600040F40030D86160D0324A3FE0B4F5807F57
:1029700004D0B4F5007FEFD12F4800E02F4840EAA3
:102980000262DA61D9F80C201A625E6259612CE0A9
:1029900048EA0260D9F8084040F40030D8615E622D
:1029A0005961211DD962217841B1012921D0244BDF
:1029B00040F20B11234A244827F036F9DA6961887E
:1029C00022F47F42013922F0100242EA0122DA6148
:1029D0000122174BD96941F02001D961D9698906D3
:1029E000FCD410219960002ABED0184A1A60BDE8B4
:1029F000F883D969FF3A608821F47F4118BF01222A
:102A0000013821F0100141EA002141F01001D961A3
:102A1000DFE748EA026242F40032DA61B5E748EAE9
:102A20000262034B42F40032F7E742F20132DDE783
:102A30000010005201230100090002000A000200F8
:102A40002D2A0308472A0308B82903080123020096
:102A5000024B1B68586803685B691847CC5902240D
:102A600090F8A03D10B50446D3B903689B6A984717
:102A700019491A4A0B681B01D35C012B2AD118484B
:102A8000006838BB207A28BBA07A18BB086884F895
:102A9000A03D237202EB0010BDE8104000F0AEBE76
:102AA000037A43B1002303720B4B18680B4B03EB03
:102AB000001000F0E3FE606803681B68984748B99F
:102AC000637A3BB1236884F8A00D20465B6ABDE8B9
:102AD0001040184710BD00BF5CB300240C00002458
:102AE00058B3002470B504460E4B0C300026254622
:102AF000602260602672667245F8203B29460CF021
:102B0000FFFD04F55A63EE6024359D42FBD184F845
:102B1000A06D0020C4F8A46D03F041F9C4F8A40D21
:102B2000204670BD3C310308034B1A68D207FCD421
:102B300023229A60704700BF001000520B4A53696D
:102B4000DB0311D500290FDD00F01F031944BFF38B
:102B50004F8F0144C2F8680220300B1A002BF9DCB9
:102B6000BFF34F8FBFF36F8F704700BF00ED00E0E2
:102B700030B5104C2568ED07FCD423250904FF2B44
:102B8000A5604FF0010541EA050165636164E063FA
:102B90000CD0094922F07F42656241EA0363E36198
:102BA000064B22626061E060236030BDE561044B4A
:102BB000A263F9E7001000520900010001000200C1
:102BC0000100030030B50E4C2568ED07FCD4232529
:102BD0001204FF2BA5604FF0010542EA0502656370
:102BE0006264E063E16007D0064A42EA0363E3619E
:102BF00065626061226030BD034BE3612560FAE7E6
:102C00000010005201000200010002FF30B50B4C21
:102C10002568ED07FCD4232512041B06A5600125B9
:102C200043F400332A4365636264E063E160E36177
:102C3000034B65626061236030BD00BF001000522D
:102C4000010002000121002208B5084603F023F923
:102C50000A4B186028B90A4B28210A4A0A4826F06C
:102C6000E3FF00220421012003F0C2F9074B1860A2
:102C700018B9074B2C21034AF0E708BDDCA100245A
:102C8000852A0308CE2A0308FD2A0308D8A10024B8
:102C90002A2B0308024B4FF0FF31186803F04AB9A2
:102CA000DCA10024014B186803F076B9DCA10024F4
:102CB000024B0021186803F03DB900BFDCA10024DD
:102CC000FFF7F0BF0023034803491A46006803F0EA
:102CD000CEB900BFD8A100240400002413B50023FE
:102CE000074C01A91A46206803F0F9F94FF0FF33A9
:102CF000002201A9206803F0F2F902B010BD00BF64
:102D0000D8A10024012070470C2070470C2303FB3E
:102D10000100083070470C2303FB010008307047A6
:102D200001207047F8207047F82303FB01000830AA
:102D30007047F82303FB01000830704701207047FB
:102D40001020704700EB01100830704700EB0110B5
:102D5000083070470846FEF7C1BE0000034B10B5AF
:102D6000044603600BF09EFA204610BDF4310308C0
:102D700010B50446FFF7F2FF142120461EF0E2FBD7
:102D8000204610BD034B10B5044603600BF08AFAD1
:102D9000204610BDC031030810B50446FFF7F2FF0E
:102DA0004FF4807120461EF0CDFB204610BD000080
:102DB000034B10B5044603600BF074FA204610BDB7
:102DC0008C31030810B50446FFF7F2FF18212046A6
:102DD0001EF0B8FB204610BD084B10B5044603603A
:102DE00000F59670FFF7BAFF04F12C00FFF7CAFF59
:102DF00004F11400FFF7DCFF204610BD2832030861
:102E000008B50248FFF7E8FF08BD00BFA4B00024E2
:102E100010B50446FFF7E0FF4FF4287120461EF07E
:102E200091FB204610BD00002DE9F341FEF7CAFFDB
:102E300000240546FEF7CAFF2346014622462846DF
:102E4000009413F043FB274B274A2046274D1A6076
:102E5000FFF736F8264B274A27489A6013F0E6F921
:102E60002B68BFF35B8FDB0735D428461EF06CFB65
:102E700088B3224C224B04F5A27604F1140004F12D
:102E80002C0804F5967723606060C4F80880E7603A
:102E900026610BF009FA1B4B404663610BF004FA04
:102EA000194B3846E3620BF0FFF9184B04F5A0709C
:102EB000C4F82C31FEF7BCFA224604F5A071304666
:102EC000FEF7EAFA3046FEF709FE114826F0CCFE7E
:102ED00028461EF055FB0F4802B0BDE8F04100F057
:102EE00023BD00BF285A022468A20024A0B00024F9
:102EF00088A200246CA2002408000024A4B00024AE
:102F0000283203088C310308C0310308F431030868
:102F1000012E0008E0A1002470470000014800F0E5
:102F200015BD00BFE0A1002473B50E4C0E4B0F4E33
:102F300020460F4D3360FFF7D5FD284617F030FCD3
:102F40000C4811F093FB4FF448734FF4F072214694
:102F50000948CDE9003233462A4600F057FD02B059
:102F600070BD00BFF4A20024943303089CB0002479
:102F700088A200246CA20024E0A100240148FFF7ED
:102F8000FDBB00BFF4A200244069704790F84000E8
:102F90007047036B23B9C06A003818BF012070471F
:102FA00001207047806870477047043010B50C46A8
:102FB0000FC884E80F0010BD7047000008B5034A31
:102FC0004FF4E571024B034826F02EFE6C2B0308EC
:102FD000BA150308C72B030810B5044648211EF094
:102FE000B1FA204610BD000000220E4B10B511466C
:102FF00004460360C26380F84020C0E90522C0E9AE
:103000000722C0E90922C0E90B22C0E90D22C0E96C
:103010000322C0E90122012002F03DFF024B1860AB
:10302000204610BD3C32030860B3002410B40C46A7
:1030300011461A46036B3BB1C36B406BE41A204444
:103040005DF8044B29F010BAC06AF8E7036B10B5BD
:1030500073B1C36B426BC91A5318525C98785C7891
:10306000000440EA04201043DB7840EA036010BD0E
:10307000C26A5318525C59789878000440EA0120DB
:10308000F1E7036B43B1C36BC91A436B5A18585C21
:10309000527840EA02207047C36A5A18585C537845
:1030A00040EA03207047000070B50446006B0D46EF
:1030B0001646D8B1A36B934208D209230D4AA12129
:1030C0000D4884F840300D4B26F0AEFD0368DB68F8
:1030D0009847206B3246616B03681B69984710B9AB
:1030E0000D2384F84030606BE56370BDE06A0844EE
:1030F000FBE700BF112C0308C72B0308FE2B0308B6
:103100002DE9F843436904462BB9224BE721224AB3
:10311000224826F089FD08228169FFF7C5FFA169D1
:1031200043F2300646F2643704312046FFF78EFF43
:10313000A3691844A36A00F108029A4206D3012346
:1031400000206361236AA361BDE8F883636900F12D
:10315000090108222046013321F001016361A161C8
:10316000FFF7A2FFD4F8189020464946FFF789FFE1
:1031700009F1020180462046FFF783FF09F10401AF
:1031800005462046FFF762FFB045D1D1BD42CFD101
:103190000120D9E7532C03089C2C0308C72B0308F4
:1031A0000129036838BF0121DB6A70B50D4604466A
:1031B0009847A84204D223682046DB6A9847054610
:1031C0006B1EE6691022204606EB031606F1080185
:1031D000FFF76AFF06F110012046FFF737FF236A69
:1031E000043B0344C4E9055370BD0000002148229C
:1031F0002DE9F0410446816180F84010FFF754FF4B
:10320000A6690423634A31462046FFF70FFF48B101
:103210000323614A40F22F1184F840305F4B60482D
:1032200026F002FD06F1080104235E4A2046A16152
:10323000FFF7FCFE38B10423574A40F2371184F8F7
:103240004030594BEBE706F10C010423574A204666
:10325000A161FFF7EBFE074638B105234E4A4FF454
:103260009F7184F84030524BD9E706F11001204697
:10327000FFF7ECFE054620B94E4B4FF4A271464ACB
:10328000CDE706F1140804234B4A20464146FFF7D8
:10329000CDFE002849D0062384F840300423474A55
:1032A00006F118012046FFF7C1FE00283FD0072392
:1032B00084F840304544424F0C2220462946FFF70F
:1032C000F3FE05F1080604233A4620463146FFF78F
:1032D000ADFE94F84030002848D0002B48D1A36AB6
:1032E000AB4249D805F10C0304352046A3612946B9
:1032F000FFF7ACFE3044294660622046FFF7A6FE89
:103300000644042220463146FFF7CEFE04232D4A10
:1033100031462046FFF78AFE002838D10123E661B6
:103320006361A3692362BDE8F0810127B6E7002F3E
:10333000C0D006F120012046FFF788FE4FF47A73D3
:1033400006F13001B0FBF3F060602046FFF77EFE2F
:1033500006F14001A0602046FFF778FE06F1440127
:10336000E0602046FFF772FE2061A3E7002BB9D092
:103370000A2384F84030D6E7291D2046FFF766FE71
:1033800085190C2220462946FFF78EFE99E70B236C
:10339000EFE700BFCF2C0308ED2C0308D42C030863
:1033A000C72B03081A2D03081F2D0308372D030808
:1033B0003C2D0308522D03085E2D0308632D0308DE
:1033C000682D03086D2D0308C0E90A21002202635D
:1033D000FFF70CBF10B5002304460846E3620B68F4
:1033E00021639B689847A0622046BDE81040FFF724
:1033F000FDBE000037B5134B0024134D1C60134B6A
:103400001C60134B2C601C60124B1960124B1A602D
:10341000124B1C60124B2A684FF4C0751C701C7450
:10342000C3E90244C3E9064403EB02130D4AD26820
:103430006A4300924FF450425B6809F0C1FA20469B
:1034400003B030BD7CB300246CB300245CB3002413
:103450008CB3002484B3002488B3002464B3002414
:103460000C00002444B300244B68012B15D1CB6819
:103470001A071EBF23F00F031033CB608B681807A9
:103480001EBF23F00F0310338B60CB688A681B09C3
:10349000120953430E4A13607047022B0ED1CB68BA
:1034A0001A0703D023F00F031033CB608B685A0741
:1034B0001EBF23F0070308338B607047002BFCD13D
:1034C000CB685807F2D023F007030833EDE700BFBD
:1034D00074B300240B4A13680B4430B413600A4AD7
:1034E000126893420CD2094CD21A2568B2F5504F9B
:1034F000294428BF4FF45042216030BC09F0C2BAC1
:1035000030BC70478CB3002488B3002484B30024FB
:10351000F8B5204C0121204D064623681F4F1B01A2
:10352000E954236805EB03139A601D4B1968226860
:1035300005EB0212D1601A68F9680A441A60236820
:10354000013323602368012B01D900232360236802
:103550001B01EB5C33B10221304609F065FA114BD7
:1035600001221A6022683046FB6805EB02154FF411
:10357000C07269685A4309F088FA0B4B1B681A7AC3
:103580003AB99B7A2BB9094B1868BDE8F84002F0AC
:1035900003BDF8BD6CB300240C00002444B3002428
:1035A00064B300247CB3002470B3002460B300240F
:1035B00072B6FEE7014B01221A60704780B3002407
:1035C00038B5164D04462B6813B1154B1B681BBB51
:1035D000144B1868037A63B9134B144A1B681B0118
:1035E000D35C012B05D10E4B1B6813B903681B6913
:1035F00098470F4A1368012B0CD10E4B0B491B68DF
:103600001B01CB5C33B92B6823B902212046136020
:1036100009F067FC022038BD0120FCE780B30024DC
:1036200058B3002470B300245CB300240C000024C1
:103630007CB300246CB3002470B50546002A3DD04D
:10364000002B3BD01E4803240461EC6826074FF48E
:10365000166618BF24F00F04466018BF10340460CB
:103660002409C4602C6914F00F0418BFC4F11004BD
:10367000846003240698B0FBF4F0124C20601248DA
:10368000124C03601248FFF7B5FE6A6C114B104DE7
:103690001A602846FFF794FF20602368022B05D1AB
:1036A0000D4B4FF0FF31186802F044FC2368012BEA
:1036B000EFD10023094A1360094A136070BD00BFAF
:1036C00044B3002468B3002490B3002478B30024EA
:1036D0006858022470B3002460B3002480B300242F
:1036E00058B300242DE9F04F9946436985B004464C
:1036F0000F4690462BB9294BB321294A294826F079
:1037000093FA08228169FFF7CFFCA669204631466B
:10371000FFF7B7FCB11C83462046FFF7B2FC311D12
:1037200082462046FFF792FC06F10801A36A05468F
:103730000A189A4226D243F230039B4517D146F22B
:1037400064339A4513D190B10246A1612046FFF738
:10375000ABFC0E9B01462A462046CDF80080CDE901
:1037600001933B46FFF768FF636901336361A36917
:103770002B4405B908330133626A23F001039342F5
:10378000A36109D1012301206361236AA36180F051
:10379000010005B0BDE8F08F0020F8E7532C0308C6
:1037A000722D0308C72B0308F8B504468169164635
:1037B0000822FFF779FCA7692046391DFFF746FC70
:1037C00007F10801024605462046FFF76DFC014659
:1037D0006EB12A46074C084D33460748FFF70AFEEC
:1037E0002846FFF7EDFE20602368002BF8D001206B
:1037F000F8BD00BF78B3002468580224D0F80CC08C
:1038000017494FEA0C120B68B2FBF3F24B68F0B5A4
:103810005A430124134B144D12015C63CF682D6889
:103820003E01ED1B3C05AC4515D38968C1F1100183
:10383000214359640D4909680A44DA630C4A126845
:10384000921B1A6400221A610A4ADA614268DA603D
:10385000094A1A60F0BD44F010045C64EAE700BF56
:1038600044B300240010005274B3002490B3002429
:1038700068B300240B0009FF012301000C4B002258
:10388000027019688260013119601968012900D934
:103890001A60084B084A1B68D2689B1AC2689A4291
:1038A00002D3064B01221A60054B186802F074BB64
:1038B0005CB3002474B3002444B3002458B3002440
:1038C00060B30024014B1868704700BFA8B3002400
:1038D0007047FEF7F8BBFEF789BBFEF7A5BDFEF704
:1038E00097BD000010B50446FEF75AFD94F84F301E
:1038F00013B1024B01221A7010BD00BF3400002426
:10390000FEF77CBB0AF081BF10B5044688211DF08C
:1039100019FE204610BD0000024B00221A700AF06A
:10392000B1BF00BF3400002438B50446064DFEF791
:103930008BFB0023284684F84E3000F07FFA0123E9
:10394000256184F8743038BD98B3002403680446B8
:1039500007B5D3F88430984723682046DB6F984733
:10396000FFF7BCF9236820465B6F984700212923A5
:1039700015220548009105F042FAFFF7AFF92368D8
:1039800020465B6F9847F8E7C05802242DE9F041C4
:103990000D461946174B04461D6035B9164B40F2CB
:1039A0000131164A164826F03FF9C0E91052003A94
:1039B0000368144E18BF0122D3F890303270984734
:1039C000E569A5B12B681F68337873B12368204679
:1039D0005B6B9847236C834207D1616C0A4B284686
:1039E0001A883B46BDE8F0411847216CF6E7BDE870
:1039F000F08100BFA8B30024CD2D0308052E0308D5
:103A000035180308C0590224C459022470B5C0E90E
:103A10000112C3604FF480720023BDF81460BDF83A
:103A20001050032183628385203580F82E30036394
:103A3000ADB2838680F85C30B5428366C0E913235B
:103A40001D4AC0E91B231D4AC0E90433C0E90633FF
:103A5000C0E90833C0E90F33C0E91133C0E91533B9
:103A6000C0E9183380F87430C2674FF4806283670E
:103A7000A0F880204FEA9602A0F88220B2FBF1F273
:103A8000A0F884204FF01402A0F886200C4A1060A1
:103A90000C4A15800C4A158028BF00250B4A38BFF8
:103AA000012516800A4A80F838501680094A13709A
:103AB000094B036070BD00BF01000001000001015F
:103AC000CC590224C8590224C4590224C6590224DC
:103AD000C2590224BE59022480320308012B13B5B7
:103AE0000ED8D35C152200930B460146084805F01A
:103AF00086F918B16FF0070002B010BD0020FBE797
:103B0000CDE9001201463922014805F089F9F0E7B4
:103B1000C05802241FB5CDE90112062100910146CB
:103B2000054805F0DDF9002814BF6FF007000020FC
:103B300005B05DF804FB00BFC05802241FB54FF26A
:103B400001430B4C39220021ADF80C3003AB204669
:103B5000019344230093022305F062F900213523E9
:103B600015222046009105F04AF904B010BD00BFAF
:103B7000C058022408B5FFF7E1FF0C4B02221B6876
:103B8000C3F810240122C3F81024D3F8082442F00B
:103B90000102C3F80824D3F8082442F00202C3F853
:103BA00008240322024B5A6308BD00BFC0580224F8
:103BB00000100050074B07B5197839B901220648A3
:103BC0001A7029231522009105F019F903B05DF848
:103BD00004FB00BF94B30024C0580224064B07B571
:103BE00001932A233922002100930423034805F07E
:103BF00017F903B05DF804FB30000024C05802241C
:103C0000064B07B501932A23392200210093042390
:103C1000034805F005F903B05DF804FB2C0000240F
:103C2000C058022438B5154D0446002000F060F954
:103C30002B6893F86E20013283F86E20002283F8FF
:103C40008020FFF73FF80E4B2A6819781B7882F81E
:103C50004E1073B10B4D2B7803F0FF024BB90A4B9A
:103C60001A60FFF7BBFF204605F0B9F801232B705F
:103C700038BD0020BDE8384000F06AB9CC590224B4
:103C800034000024B0B30024ACB300242DE9F04389
:103C9000494E85B004463378002B00F08980DFF868
:103CA0003C91DFF83C81D9F80050444F002D3ED1C3
:103CB0000120434E04F02AFB23680095D3F8042426
:103CC000386822F0080200F59660C3F80424D3F89F
:103CD000042402F008020092009AD8F80020C2F8EA
:103CE000AC0038480661384E46613848C2F8880052
:103CF0003748C2F8B000516A41F0010151620195A4
:103D0000D3F8042442F00802C3F80424D3F804349E
:103D100003F008030193019BFFF772FF0123204684
:103D2000C9F8003005B0BDE8F04305F058B80368A5
:103D3000002538680295D3F80424264C22F00802A6
:103D4000C3F80424D3F8042402F008020292029A71
:103D5000D8F80020C2F8AC001A48046104F101143C
:103D600044611A48C2F888001948C2F8B0002846D1
:103D7000516A41F0010151620395D3F8042442F0E5
:103D80000802C3F80424D3F8043403F008030393AF
:103D9000039B00F0DDF8FFF70DFF0F4B35701C683B
:103DA00034B1236820461B6A9847012384F8803089
:103DB00005B0BDE8F08300BFB0B30024A8B3002471
:103DC000E201B20100100050E301920103009201F0
:103DD000B304C009E2019201CC590224ACB300241F
:103DE000E8560224014608B5034B186801B10121C9
:103DF0000BF03EFB012008BDCC590224034B0022EE
:103E00005A609A60024A1A60704700BF98B3002453
:103E10006C3303084068704741607047521A02EBE8
:103E20005302B2FBF3F07047024BC0681B685B6A39
:103E300058437047B4B300247047000037B51E4A9A
:103E40004FF0804105464FF0FF30D2F8E83043F0A4
:103E50000103C2F8E830D2F8E83003F0010301931F
:103E6000019B164B19600021D86019619960596057
:103E700001215961D369102292FAA2F203F0700372
:103E8000B2FA82F2D3400E4AD35C83B907F054F9F8
:103E9000044606F089FFB0FBF4F0E860074808F03C
:103EA0008FF9064803B0BDE8304008F019B807F0B4
:103EB00065F94400EDE700BF00440258B4B30024A4
:103EC000A437030810B5044610211DF03BFB204623
:103ED00010BD38B5036804461B6931B18568984741
:103EE00063685B1B0344636038BD9847A060FBE7D1
:103EF000032825D8DFE800F0020B131B114B082123
:103F00001A68B2FA82F252090F4805F00DBA0D4B49
:103F10004FF480715A68B2FA82F25209F4E7094B01
:103F20004FF400719A68B2FA82F25209ECE7054B3D
:103F30004FF480710548DA68B2FA82F25209E4E778
:103F4000704700BF00B40024002402580014025837
:103F5000032825D8DFE800F0020B131B114B0821C2
:103F60001A68003A18BF01220F4805F0DDB90D4B61
:103F70004FF480715A68003A18BF0122F4E7094BE8
:103F80004FF400719A68003A18BF0122ECE7054B24
:103F90004FF480710548DA68003A18BF0122E4E75F
:103FA000704700BF00B400240024025800140258D7
:103FB000032811D8DFE800F00206090C08210748A1
:103FC00005F0B7B94FF48071F9E74FF40071F6E7E7
:103FD0004FF480710248F3E7704700BF0024025895
:103FE0000014025808B5032815D8DFE800F0020ACB
:103FF0000D100821094805F091F9431E5842584117
:1040000008BD4FF48071F5E74FF40071F2E74FF40B
:1040100080710348EFE70020EFE700BF002402585B
:104020000014025870B5084D00240126E0B2FFF7D5
:10403000D9FF18B12B68012B18BF2E60013404354D
:10404000052CF3D170BD00BF00B400247047000000
:10405000F8B50A4B0F4616461D7815B900252846B7
:10406000F8BD074C0020214604F0B4F82368002B6B
:10407000F4D063683B60A3683360F0E720B40024A9
:1040800010B4002410B5044604211DF05BFA20464C
:1040900010BD000008B50E4B4FF44872002019689F
:1040A0004FF4F073C1E900230C23C1E9023004F09E
:1040B00001F8084B10B901221A7008BD1B78002BBB
:1040C000FBD1054B2E21054A054825F0ADFD00BF6B
:1040D0001CB4002420B40024532E0308662E0308C9
:1040E000902E03080B4A0346116810B509B90A4916
:1040F0001160106809490A4C0344091B8B4206D918
:1041000028F0E0FA0C2303604FF0FF3010BD13607D
:10411000FCE700BF24B4002438670224000002201A
:10412000001000000120704708B528F0CBFA1623D4
:1041300003604FF0FF3008BD08B528F0C3FA16231E
:104140000360FEE770B50D4614460E46731B9C4295
:1041500001DC204670BDAFF3008006F8010BF5E7E7
:1041600070B50D4614460E46731B9C4201DC20467A
:1041700070BD16F8010BAFF30080F5E74FF0FF308C
:1041800070474FF4005300204B6070470120704788
:1041900000207047704708B5FEF7BEFEBDE8084036
:1041A000FEF742BEFEF7BABE00F108034FF0FF3241
:1041B00043600361C0E902230023C0E905330360C3
:1041C000704700230361704730B50C68631C0AD147
:1041D00003695A684A6091608B605960036808619E
:1041E0000133036030BD00F10802134652681568C0
:1041F000A542FAD9EDE70369D0E901128A6051605E
:104200005968814208BF5A60002202611A68013A67
:104210001A601868704710B5044602F003F9A46CE0
:1042200002F020F9B4FA84F0400910BD70B51646CA
:10423000026D0446856C42B906689EB9806801F03B
:10424000C7FAA6600135A56470BD6EB94068FCF779
:10425000F7F96368226D1344A2689342636024BF38
:10426000236863600020EDE7C068FCF7E9F9226D80
:10427000E36851429B1A22689342E3603EBFA36801
:104280005B18E360022EEDD10DB1013DEAE728464F
:10429000D8E7034608461A6D10B462B1DC68996825
:1042A00014448C42DC605DF8044B24BF1968D9606B
:1042B000D968FCF7C5B95DF8044B704770B5044682
:1042C00002F0B0F894F8555004F12C066DB2002DB0
:1042D00001DDE36AB3B9FF2304F1100684F8553019
:1042E00002F0C0F802F09EF894F854506DB2002D20
:1042F00001DD23697BB9FF2384F85430BDE87040A9
:1043000002F0B0B8304601F053F908B101F0FEF9FF
:10431000013D6DB2DBE7304601F04AF908B101F02A
:10432000F5F9013D6DB2E2E770B50E46044640B9BD
:104330004FF0500383F31188BFF36F8FBFF34F8F9C
:10434000FEE7C56CA5B3036DA3FB053585BB02F085
:1043500069F82268A5646260D4E913314B43D01830
:104360005B1A1A44FF23A06084F85430E26084F89A
:104370005530A6B9236973B104F1100001F018F9A2
:1043800048B14FF0E0234FF08052C3F8042DBFF343
:104390004F8FBFF36F8F02F065F8012070BD04F1FD
:1043A0001000FFF701FF04F12C00FFF7FDFEF2E71C
:1043B0004FF0500383F31188BFF36F8FBFF34F8F1C
:1043C000FEE737B50D461C4643B94FF0500383F363
:1043D0001188BFF36F8FBFF34F8FFEE708B14AB16B
:1043E00051B94FF0500383F31188BFF36F8FBFF3C0
:1043F0004F8FFEE70029F4D160230193019B602BCE
:1044000008D04FF0500383F31188BFF36F8FBFF3D1
:104410004F8FFEE70121002D08BF2246019B84F843
:1044200056102260C4E913052046FFF77DFF9DF872
:104430001830204684F85C3003B030BD2DE9F041DF
:104440000D461746064600B3A1FB0038B8F1000F31
:104450001BD1484310F1610F17D8603001F0B4FE52
:10446000044668B180F856806DB100F16003012107
:1044700020462360C4E91365FFF756FF84F85C709B
:104480002046BDE8F0810346F1E74FF0500383F387
:104490001188BFF36F8FBFF34F8FFEE713B513463D
:1044A0000C4658B1884209D30222009200221146DC
:1044B000FFF787FF00B1846402B010BD4FF05003D6
:1044C00083F31188BFF36F8FBFF34F8FFEE710B5F3
:1044D0000C4640B1884206D302220021FFF7AEFF0E
:1044E00000B1846410BD4FF0500383F31188BFF313
:1044F0006F8FBFF34F8FFEE72DE9FF410F461E463A
:104500000446019240B94FF0500383F31188BFF382
:104510006F8FBFF34F8FFEE751B9036D43B14FF07B
:10452000500383F31188BFF36F8FBFF34F8FFEE704
:10453000022E0BD1E36C012B08D04FF0500383F314
:104540001188BFF36F8FBFF34F8FFEE701F0EAF8DA
:10455000054620B300254FF0000801F063FFA26C70
:10456000E36C9A4227D2324639462046FFF75EFE78
:10457000E36A1BB104F12C0001F01AF848B14FF0C6
:10458000E0234FF08052C3F8042DBFF34F8FBFF3E9
:104590006F8F01F067FF012004B0BDE8F081019B3F
:1045A000002BD8D04FF0500383F31188BFF36F8FE7
:1045B000BFF34F8FFEE7022ED5D0019B1BB901F050
:1045C00051FF0020E8E715B902A801F057F801F003
:1045D00049FF00F093FD01F025FF94F85430FF2BC4
:1045E00001D184F8548094F85530FF2B01D184F820
:1045F000558001F037FF01A902A801F04BF838BB44
:1046000001F010FFA26CE36C9A420ED101F02AFF78
:10461000019904F1100000F085FF2046FFF74EFEDF
:1046200000F034FE48B1012597E701F01BFF20465A
:10463000FFF744FE00F02AFEF5E74FF0E0234FF0CD
:104640008052C3F8042DBFF34F8FBFF36F8FEAE79B
:104650002046FFF733FE00F019FEB2E700220B46BA
:1046600013B5114600900120FFF7ABFE044638B1A8
:1046700000231A46194683600360C360FFF73CFFBE
:10468000204602B010BD38B5044640B94FF0500383
:1046900083F31188BFF36F8FBFF34F8FFEE78568F9
:1046A00001F03AF885420BD1E368013BE3600BB1BE
:1046B000012038BD1A4619462046FFF71DFFF7E7CF
:1046C0000020F6E702460021012010B5FFF7B6FEF4
:1046D000044638B100231A46194683600360C3605C
:1046E000FFF70AFF204610BD2DE9F843894617461B
:1046F0001E46044640B94FF0500383F31188BFF3C0
:104700006F8FBFF34F8FFEE751B9036D43B14FF089
:10471000500383F31188BFF36F8FBFF34F8FFEE712
:10472000022E0BD1E36C012B08D04FF0500383F322
:104730001188BFF36F8FBFF34F8FFEE701F09CFF2F
:10474000EFF311884FF0500383F31188BFF36F8F9D
:10475000BFF34F8FA26CE36C9A4201D3022E2DD18E
:1047600094F855503246494620466DB2A36CFFF787
:104770005DFD6B1C0ED1E36A3BB104F12C0000F02F
:1047800017FF10B10FB101233B60012088F311889E
:10479000BDE8F88300F0C0FC8542F6D27F2D08D139
:1047A0004FF0500383F31188BFF36F8FBFF34F8F28
:1047B000FEE701356DB284F85550E6E70020E5E7E5
:1047C000F8B50E46044640B94FF0500383F3118804
:1047D000BFF36F8FBFF34F8FFEE7036D43B14FF011
:1047E000500383F31188BFF36F8FBFF34F8FFEE742
:1047F000036853B9836843B14FF0500383F31188C2
:10480000BFF36F8FBFF34F8FFEE701F035FFEFF37C
:1048100011874FF0500383F31188BFF36F8FBFF3FD
:104820004F8FA36CE26C9A4228D994F8552001333B
:10483000FF2A55B2A3640DD1E36A3BB104F12C0009
:1048400000F0B6FE10B10EB101233360012087F3F2
:104850001188F8BD00F060FC8542F7D27F2D08D1A9
:104860004FF0500383F31188BFF36F8FBFF34F8F67
:10487000FEE701356DB284F85550E7E70020E6E722
:104880002DE9FF410E460446019240B94FF0500316
:1048900083F31188BFF36F8FBFF34F8FFEE751B9DA
:1048A000036D43B14FF0500383F31188BFF36F8F53
:1048B000BFF34F8FFEE700F035FF054618B3002524
:1048C0004FF0000801F0AEFDA76C47B3013F314641
:1048D0002046FFF7DEFCA764236973B104F11000E2
:1048E00000F066FE48B14FF0E0234FF08052C3F86D
:1048F000042DBFF34F8FBFF36F8F01F0B3FD012085
:1049000004B0BDE8F081019B002BD9D04FF05003DB
:1049100083F31188BFF36F8FBFF34F8FFEE7019BC7
:104920001BB901F09FFD0020EAE715B902A800F0CD
:10493000A5FE01F097FD00F0E1FB01F073FD94F896
:104940005430FF2B01D184F8548094F85530FF2B5C
:1049500001D184F8558001F085FD01A902A800F07D
:1049600099FE00BB2046FFF756FCB0B1019904F157
:104970002C0000F0D7FD2046FFF7A0FC00F086FCDD
:1049800048B94FF0E0234FF08052C3F8042DBFF335
:104990004F8FBFF36F8F012594E72046FFF78EFC02
:1049A00000F074FCF7E72046FFF788FC00F06EFC8F
:1049B0002046FFF730FC0028EDD0B4E7F0B585B015
:1049C0000446019140B94FF0500383F31188BFF3BF
:1049D0006F8FBFF34F8FFEE7056D45B14FF050036A
:1049E00083F31188BFF36F8FBFF34F8FFEE700F0A3
:1049F00099FE064620B32E46002701F013FDA36C56
:104A000053B3013BA364236813B900F07FFFA06098
:104A1000236973B104F1100000F0CAFD48B14FF0F2
:104A2000E0234FF08052C3F8042DBFF34F8FBFF344
:104A30006F8F01F017FD012005B0F0BD3546DBE7B3
:104A4000019B002BFAD04FF0500383F31188BFF382
:104A50006F8FBFF34F8FFEE7019B1BB901F002FD83
:104A60000020E9E716B902A800F008FE01F0FAFC00
:104A700000F044FB01F0D6FC94F85430FF2B01D138
:104A800084F8547094F85530FF2B01D184F8557098
:104A900001F0E8FC01A902A800F0FCFD50BB204693
:104AA000FFF7B9FB00B323683BB901F0BBFCA0687A
:104AB00000F048FE054601F0D5FC019904F12C00F8
:104AC00000F030FD2046FFF7F9FB00F0DFFB48B9AE
:104AD0004FF0E0234FF08052C3F8042DBFF34F8F07
:104AE000BFF36F8F012688E72046FFF7E7FB00F052
:104AF000CDFBF7E72046FFF7E1FB00F0C7FB2046C0
:104B0000FFF789FB0028EDD0002DA9D001F08AFC29
:104B1000E16A19B1A36B1968C1F13801A06800F00E
:104B2000A1FE9BE770B50D46044640B94FF0500317
:104B300083F31188BFF36F8FBFF34F8FFEE7866853
:104B400000F0EAFD864204D1E36801200133E3600E
:104B500070BD29462046FFF731FF0028F8D0E368F2
:104B60000133E360F4E72DE9F843894690460446B3
:104B700040B94FF0500383F31188BFF36F8FBFF339
:104B80004F8FFEE751B9036D43B14FF0500383F3EC
:104B90001188BFF36F8FBFF34F8FFEE701F06CFDFD
:104BA000EFF311874FF0500383F31188BFF36F8F3A
:104BB000BFF34F8FA66C86B394F8545049462046F5
:104BC000013E6DB2FFF765FBA6646B1C11D1236932
:104BD00053B104F1100000F0EBFC28B1B8F1000F64
:104BE00002D00123C8F80030012087F31188BDE806
:104BF000F88300F091FA8542F6D27F2D08D14FF06C
:104C0000500383F31188BFF36F8FBFF34F8FFEE71D
:104C100001356DB284F85450E6E73046E5E7000010
:104C200070B540B94FF0500383F31188BFF36F8F15
:104C3000BFF34F8FFEE7B1B10B4A002315461C4668
:104C40005668864204D105EBC403C3E900100AE0AC
:104C50001BB91668002E08BF134601340832082C11
:104C6000EED1002BF1D170BD2CB4002410B540B9A9
:104C70004FF0500383F31188BFF36F8FBFF34F8F53
:104C8000FEE70023084A52F83310DC00814206D1C7
:104C9000064A002142F833102244516010BD01330E
:104CA000082BF0D1FAE700BF30B400242CB4002464
:104CB00010B540B94FF0500383F31188BFF36F8FE5
:104CC000BFF34F8FFEE7FFF7D1FF90F856301BB9C7
:104CD000BDE8104001F008BB10BD70B504460D469C
:104CE000164601F09FFB94F85430FF2B02D10023AD
:104CF00084F8543094F85530FF2B02D1002384F807
:104D0000553001F0AFFBA36C2BB93246294604F1B4
:104D10002C0000F021FC2046BDE87040FFF7CEBA21
:104D20002DE9F041044601F07DFB334B334E1A6808
:104D3000334F01321A603568002D52D134601B6840
:104D4000012B1FD1B84601354046FFF72DFA08F177
:104D50001C08382DF7D1DFF8D0802A4D4046FFF7E8
:104D600023FA2846FFF720FA2748FFF71DFA2748BD
:104D7000FFF71AFA2648FFF717FA264BC3F8008008
:104D8000254B1D60254A136801331360244A636470
:104D90001168E36A8B4200D913601C22201D534323
:104DA000F9184A689568A260E56068609060FA58F2
:104DB00061610132FA5001F055FB1A4B1B6873B167
:104DC0003368DA6AE36A9A4209D24FF0E0234FF07F
:104DD0008052C3F8042DBFF34F8FBFF36F8FBDE830
:104DE000F081104B1A68E36A002ACBD13268D26A8C
:104DF0009A42C7D83460C5E790B400244CBB002465
:104E00002CB50024F4B40024D0B40024B4B400249D
:104E100094B40024F0B40024ECB4002474B400244E
:104E200088B4002484B4002410B50024F8B51B4BCA
:104E300006461B4C0F461D6820680430FFF7DBF95F
:104E4000731C13D197B1174B21685A688A60906818
:104E50002168C86021680431416021680431916093
:104E6000226853611A6801321A60F8BDAD192368CF
:104E70005D6007D30C4B18682168BDE8F840043129
:104E8000FFF7A2B9094B186821680431FFF79CF9B4
:104E9000074B1A68AA42E8D91D60E6E78CB40024E3
:104EA0004CBB002494B40024ECB40024F0B40024DF
:104EB00070B40024064A13681968064B19B94FF0FC
:104EC000FF321A6070471268D2681268F9E700BFB3
:104ED000F0B4002470B4002410B590F85D3004469E
:104EE0003BB9006B01F000FA2046BDE8104001F02C
:104EF000FBB9012BF9D0022B08D04FF0500383F3FC
:104F00001188BFF36F8FBFF34F8FFEE710BD000016
:104F100080B5144C144F154D236883B9144B1B688E
:104F2000012B09D94FF0E0234FF08052C3F8042D34
:104F3000BFF34F8FBFF36F8F08F048FDEBE701F031
:104F400071FAFB68DE68301DFFF755F92B68013BED
:104F50002B602368013B236001F084FA3046FFF7A1
:104F6000BBFFD9E7B0B40024B4B4002490B400244B
:104F70002CB500242DE9F84F0C9C96000D460746F1
:104F80003246A521206B9846DDE90AA927F0B2F93F
:104F9000D4F830B06DB16B1E04F133020F3513F845
:104FA000011F02F8011F09B1AB42F8D1002384F8B8
:104FB0004330BAF1370F08D94FF0500383F311880B
:104FC000BFF36F8FBFF34F8FFEE7201D043EC4F881
:104FD0002CA0CAF13805C4F84CA0FFF7F2F804F190
:104FE0001800FFF7EEF80BEB06004246394620F0BA
:104FF00007002461A561646201F0EEF92060B9F157
:10500000000F01D0C9F80040BDE8F88F2DE9F0434A
:1050100087B005460E4617469846DDE90F94B9F16C
:10502000000F08D14FF0500383F31188BFF36F8F47
:10503000BFF34F8FFEE744B94FF0500383F311885D
:10504000BFF36F8FBFF34F8FFEE760230593059A81
:105050009A4208D04FF0500383F31188BFF36F8F4B
:10506000BFF34F8FFEE700212046059B27F042F952
:105070000223C4F830903A46314684F85D3004ABE0
:105080002846029401930E9B00934346FFF772FF5C
:105090002046FFF745FE049807B0BDE8F0832DE9F0
:1050A000F043074685B0900088461646994601F0C1
:1050B0008BF8054620B94FF0FF3005B0BDE8F0830E
:1050C000602001F081F80446A0B16022002127F0A1
:1050D00011F90D9B25633246019341460C9B3846DE
:1050E000029400934B46FFF745FF2046FFF718FE5A
:1050F0000120E2E7284601F0F7F8DCE7024A1368EE
:1051000001331360704700BF6CB40024014B186872
:10511000704700BF8CB40024014B1868704700BF73
:1051200090B400242DE9F84F4D4B1B68002B40F044
:1051300091804C4B1C6801341C60BCB94A4B1A6806
:10514000126842B14FF0500383F31188BFF36F8FA1
:10515000BFF34F8FFEE7454A196810681860116069
:10516000434A136801331360FFF7A4FEDFF810C150
:105170000020404ADCF80030DFF808819C420FD262
:10518000D8F800301C21DB6A4B43D358022B3A4B32
:105190001B6828BF0120002B18BF0120BDE8F88F35
:1051A000DFF8C4E0DFF8E090DEF800301B6823B9D8
:1051B0004FF0FF33CCF80030E2E7DEF80030DB6878
:1051C000DB6859688C4202D2CCF80010D8E75D69E0
:1051D0001F1DD3E902168E6071606968B9424FF0F5
:1051E000000108BF6E6059612968013929609D6A14
:1051F0007DB103F1180AD3E907168E607160696802
:1052000051454FF0000108BF6E609962296801396D
:105210002960D96AD9F80050A94201D9C9F800100B
:105220001C254D4302EB050ADAF80460D6F808B0F5
:105230009E60C3F80CB0CBF80470B760C3F814A03C
:10524000535901335351D8F80030DB6A994288BF73
:105250000120A9E7094A00201368013313609DE784
:105260006CB400248CB40024F0B40024ECB400240A
:1052700078B400242CB500247CB4002480B400242D
:1052800070B400244CBB002488B400242DE9F84FEE
:10529000454C236843B94FF0500383F31188BFF3A3
:1052A0006F8FBFF34F8FFEE701F0BCF82368013B1F
:1052B000236023682BB1002401F0D4F82046BDE818
:1052C000F88F3A4A1268002AF5D0394E4FF01C0C7C
:1052D000384F4FF001093849DFF8E8E0DFF8E080A7
:1052E0003FE0F368DB68986A03F11805D3E9072407
:1052F000946062604268AA424FF0000208BF4460B6
:105300009A620268013A026058691D1DD3E90224BD
:10531000946062604268AA42026802F1FF3208BFEC
:10532000446002603868DA6A824200D93A600CFB55
:1053300002F001EB000ADAF80440D4F808B09C60EF
:10534000C3F80CB0CBF80450A5600C58C3F814A0F7
:1053500001340C50DEF80000C06A824201D9C8F85E
:1053600000903268002ABCD10BB1FFF7A3FD134DAA
:105370002C6844B1124E0127FFF7D4FE00B137600C
:10538000013CF9D12C600E4B1B68002B93D04FF0E1
:10539000E0234FF08052C3F8042DBFF34F8FBFF3CB
:1053A0006F8F012488E700BF6CB4002490B4002400
:1053B000D0B4002488B400242CB5002480B4002488
:1053C0007CB400244CBB002438B50D46044608B913
:1053D000044B1C6801F026F86565BDE8384001F013
:1053E00041B800BF4CBB0024034608460BB9034B31
:1053F0001B685B6D03B11847184670474CBB00240F
:1054000010B588B0002407AA06A905A8CDE905446F
:1054100000F09CFE059B079A0293069B18491948C9
:10542000CDE900432346FFF7F1FDD0B100F0E2FBE8
:1054300001281AD14FF0500383F31188BFF36F8F07
:10544000BFF34F8F104B4FF0FF3221461A600F4BC6
:1054500018600F4B1C600F4B1868FFF7C5FF01F079
:1054600071F80D4B1B6808B010BD0130F9D14FF039
:10547000500383F31188BFF36F8FBFF34F8FFEE7A5
:10548000BD2E0308114F000870B4002484B400241A
:105490008CB400244CBB0024A4330308F8B51C4B87
:1054A0001A681C4B12B101221A60F8BD1A4C012176
:1054B0001A4D1C271A602068FFF796FF2A681849C2
:1054C00007FB02F3CE58C818AEB1466808337668B9
:1054D0000B449E42466004BFC36843601C2303FB29
:1054E00002114B680021DB6823602A602068BDE858
:1054F000F840FFF779BF42B94FF0500383F31188AA
:10550000BFF36F8FBFF34F8FFEE7013AD8E700BFBD
:105510006CB400247CB400244CBB002488B4002468
:105520002CB5002410B50C4640B94FF0500383F35E
:105530001188BFF36F8FBFF34F8FFEE7054B1968DC
:105540001831FEF741FE20460121BDE81040FFF76B
:105550006DBC00BF4CBB002470B40C46114640B972
:105560004FF0500383F31188BFF36F8FBFF34F8F5A
:10557000FEE70E4B002942681D689668EA611D68C7
:105580002E621D6805F1180575601D681B6805F120
:10559000180595609862036803F1010303600CBF6E
:1055A00020464FF0FF3070BCFFF740BC4CBB0024DE
:1055B000C368DB68F0B543B94FF0500383F311883B
:1055C000BFF36F8FBFF34F8FFEE79A6A03F11804A2
:1055D000D3E90701816048605068A04208BF51606C
:1055E000002199621168013911601E4AD96A126856
:1055F000002A28D15A691D1DD3E90240A0604460E9
:105600005468AC4208BF5060106801381060164AF8
:105610001068814200D911601C2214484A43861840
:105620007468A7689C60DF607D60A5605E618358D8
:10563000013383500E4B1B68DB6A99420FD901205E
:105640000C4B1860F0BD0C4A50688568D8611D622B
:105650006C6084609A62136801331360EAE700208B
:10566000F0E700BF6CB4002488B400242CB50024FB
:105670004CBB00247CB40024D0B40024034B1B6832
:105680000360034B1B684360704700BF78B400247D
:105690008CB4002470B50D46044640B94FF0500359
:1056A00083F31188BFF36F8FBFF34F8FFEE741B9CC
:1056B0004FF0500383F31188BFF36F8FBFF34F8F09
:1056C000FEE700F0AFFE0F4B19682B685A1C17D08D
:1056D0000D48266800686268864208D08A4206D86B
:1056E000002301242B6000F0BDFE204670BD881A07
:1056F0008342F5D95B1A204613442B60FFF7BEFFA7
:105700000024F0E78CB4002478B40024014B01227B
:105710001A6070477CB40024014B1868704700BFC2
:105720004CBB0024054B1B6833B1054B1868B0FA1D
:1057300080F04009400070470120704784B4002485
:105740006CB40024F8B5044600282ED01D4DC36A61
:105750002A68D26A93422DD28269002A04DB2A6821
:10576000D26AC2F1380282611C22174E02FB036327
:1057700062699A421AD1271D3846FEF73CFD2B6814
:10578000124ADB6A1168E3628B4200D913601C2263
:105790005343F1184A689068A260E06047609760E0
:1057A000F25861610132F2500120F8BD2B68DB6ACA
:1057B000E362F9E72B68C06CDB6A98422CBF0020DB
:1057C0000120F2E74CBB00242CB5002488B400244F
:1057D00070B5044608B9002070BD1F4B1B6883429A
:1057E00008D04FF0500383F31188BFF36F8FBFF3DE
:1057F0004F8FFEE71B6D43B94FF0500383F31188C1
:10580000BFF36F8FBFF34F8FFEE7C16A013BC26CDE
:1058100003659142DFD0002BDDD1051D2846FEF740
:10582000EAFCE36CC3F13802E362A2610B4A11683F
:105830008B4200D913601C21094A4B43D0184168A0
:105840008E68A160E66075608D60D158606101204E
:105850000131D150C0E700BF4CBB002488B4002404
:105860002CB5002470B50446002847D0026D42B91B
:105870004FF0500383F31188BFF36F8FBFF34F8F47
:10588000FEE7C36C994238BF1946C36A8B4235D0D4
:10589000012A33D11A4A1268824208D14FF05003CC
:1058A00083F31188BFF36F8FBFF34F8FFEE78269D9
:1058B000144D002A4FF01C02C16202FB0353A8BF23
:1058C000C1F138014269A8BF81619A4216D1061D13
:1058D0003046FEF790FC0C4AE36A11688B4200D90F
:1058E00013601C225343E9184A689068A260E06084
:1058F00046609660EA5861610132EA5070BD00BFAF
:105900004CBB00242CB5002488B40024044B1A6836
:105910001AB119680A6D01320A651868704700BF2C
:105920004CBB0024914208B5416000610AD8D21AEC
:1059300083699A420DD2011D074B1868FEF744FC9B
:10594000002008BD9A4201D2994202D2011D034BA8
:10595000F3E70120F5E700BF5CBC002460BC002435
:1059600070B504460D461646A1692B4632462046C0
:105970002944FFF7D7FF00B970BDA36920461D4435
:10598000236A9847F0E700000E4B1B68DB6870B590
:10599000DC6805460E46201DFEF72DFC94F82830E5
:1059A0005A0709D5324629462046FFF7D9FF236A10
:1059B0002046BDE87040184723F0010384F82830E2
:1059C000F5E700BF60BC0024F8B50F4E0546FFF7B1
:1059D0009DFB04463368834209D90C4F3B681A6823
:1059E00052B90B4A116813600123396000E00023AB
:1059F00020462B603460F8BDDB684FF0FF3118683B
:105A0000FFF7C2FFEAE700BF50BC002460BC0024DF
:105A10005CBC00242DE9F041594F86B0594E3B68DB
:105A2000D3F80080B8F1000F33D0DB680024D3F83E
:105A30000080FFF763FB02A8FFF7C6FF029B054645
:105A4000002B43D13CBB40452BD3FFF71FFC29461D
:105A50004046FFF799FF002202A93068FEF710FFC9
:105A60000028DCD0029B0498002B32DB049C636985
:105A7000002B35D101A8FFF7A7FF029B0546013B8C
:105A8000082BE8D8DFE803F03030535A7330305336
:105A90005A000124CDE73C4B1B681C68B4FA84F41F
:105AA00064092246A8EB05013068FFF716F9FFF7F5
:105AB000EDFB0028CFD14FF0E0234FF08052C3F828
:105AC000042DBFF34F8FBFF36F8FC4E7FFF7DEFBEB
:105AD000C1E7039B05999847029B002BBBDBC5E7F9
:105AE000201DFEF788FBC5E794F828300246A1691F
:105AF000204643F0010384F82830039B1944FFF744
