:020000040810E2
:1000000000800410C5071008590710085B07100886
:100010005D0710085F071008610710080000000066
:10002000000000000000000000000000630710084E
:10003000650710080000000067071008690710082E
:1000400019081008190810081908100819081008CC
:1000500019081008190810081908100819081008BC
:1000600019081008190810081908100819081008AC
:10007000190810081908100819081008190810089C
:10008000190810081908100819081008190810088C
:10009000190810081908100819081008190810087C
:1000A000190810081908100819081008190810086C
:1000B000190810081908100819081008190810085C
:1000C000190810081908100819081008190810084C
:1000D000190810081908100819081008190810083C
:1000E0001908100819081008000000001908100865
:1000F000190810081908100819081008190810081C
:10010000190810081908100819081008190810080B
:1001100019081008190810081908100819081008FB
:1001200019081008190810081908100819081008EB
:1001300019081008190810081908100819081008DB
:10014000190810081908100800000000000000003D
:1001500019081008190810081908100819081008BB
:1001600019081008190810081908100819081008AB
:1001700019081008190810081908100800000000D4
:10018000190810081908100819081008190810088B
:10019000190810081908100819081008190810087B
:1001A000190810081908100819081008190810086B
:1001B000190810081908100819081008190810085B
:1001C000190810081908100819081008190810084B
:1001D000190810081908100819081008190810083B
:1001E000190810081908100819081008190810082B
:1001F000190810081908100819081008190810081B
:10020000190810081908100819081008190810080A
:1002100019081008190810081908100819081008FA
:1002200019081008190810081908100819081008EA
:1002300019081008190810081908100819081008DA
:1002400019081008190810081908100819081008CA
:1002500019081008190810081908100819081008BA
:1002600019081008190810081908100819081008AA
:10027000190810081908100819081008190810089A
:1002800019081008190810081908100800000000C3
:080290001908100819081008F4
:100298000348044B834202D0034B03B1184770470D
:1002A8001400001014000010000000000548064B60
:1002B8001B1AD90F01EBA301491002D0034B03B15C
:1002C80018477047140000101400001000000000C8
:1002D80010B5064C237843B9FFF7DAFF044B13B186
:1002E8000448AFF300800123237010BD14000010F0
:1002F800000000003C09100808B5054B1BB1054972
:100308000548AFF30080BDE80840FFF7CFBF00BF46
:1003180000000000180000103C09100838B50F4B09
:100328001A7805460AB9012038BD4FF47A73B3FB31
:10033800F2F30B4A1068B0FBF3F000F0B1F8044692
:100348000028F0D10F2DEED8024629464FF0FF3095
:1003580000F074F8034B20461D60E5E7000000102C
:100368000C0000100400001013B5204C204AD4F8EB
:10037800D83043F48043C4F8D830D4F8D83003F4E4
:1003880080430193019BD2F800346FF3132343F4A5
:100398000143C2F80034D2F8003443F00103C2F834
:1003A8000034032000F038F800F0EEF8A269A369E1
:1003B8001049C2F3032203F00F038A5CCB5C02F0FE
:1003C8001F02D04003F01F03D8400B4B18600B4BA3
:1003D80018600020FFF7A2FF044620B900F0C2F918
:1003E800204602B010BD0124FAE700BF00440258BD
:1003F8000040024054091008080000100C000010CA
:10040800034A044B11681B780B441360704700BF04
:1004180030000010000000100749CA6822F4E062AA
:100428000302120403F4E063120C134343F0BF63A6
:1004380043F40033CB60704700ED00E0164B30B555
:10044800DC68C4F30224C4F10703251D042B28BF6C
:100458000423062D4FF0FF358CBF033C002405FA1A
:1004680003F321EA0303A54022EA0502A34000287A
:1004780043EA0203ACBF00F16040084A4FEA0313A5
:10048800B8BF00F00F00DBB2AABF00F561401354FB
:1004980080F8003330BD00BF00ED00E014ED00E04F
:1004A8000138B0F1807F0BD24FF0E023054A586144
:1004B800F02182F823100020072298611A61704702
:1004C8000120704700ED00E0044B1B6803F0F003C7
:1004D800702B14BF01200320704700BF00ED00E01F
:1004E800024A136903431361704700BF006502584D
:1004F80038B51E4C236823F0010303430D462360DF
:10050800C2B9FFF7E1FF032813D1236923F00103E0
:100518002361174B1A6942F004021A61BFF34F8F27
:10052800BFF36F8F012D10D130BF1A6922F004027A
:100538001A6138BD012A0AD1FFF7C6FF0128F8D190
:10054800636923F002036361E3E720BFEDE7FFF788
:10055800BBFF03280BBF2369636923F0040323F05F
:1005680004030CBF23616361E3E700BF004802583E
:1005780000ED00E008B5FFF7A7FF032801D120BF71
:1005880008BD40BFFBE70000494B1A6902F038027A
:10059800102A30B500F08880182A0CD0002A40F0C4
:1005A80085801A68434812F0200F03D01B68C3F3F4
:1005B800C103D84030BD996A9D6ADC6A5A6B15F44C
:1005C8007C7FC5F30510F5D0C2F3CC0204F001041A
:1005D800624307EE900A06EE902A01F00301012912
:1005E800B8EEE77AFAEEE96AB7EE006A4ED0022969
:1005F8003ED000294AD11A68920627D519682D4A93
:100608001B6BC1F3C101CA4007EE902AF8EEE75A06
:10061800C3F30803C5EE877A07EE103AB8EEC77A37
:1006280037EE267A37EE067A67EE877A204B1B6B11
:10063800C3F34623013307EE103AF8EEC76A87EE94
:10064800A67AFCEEC77A17EE900AB3E71B6BC3F3E2
:10065800080307EE903AF8EEE77A77EEA67A77EE97
:10066800867A9FED156AC6EE076A67EEA67ADDE719
:100678001B6BC3F3080307EE903AF8EEE77A77EEC0
:10068800A67A77EE867A9FED0D6AECE71B6BC3F3CB
:10069800080307EE903AF8EEE77A77EEA67A77EE57
:1006A800867A9FED076ADEE7064883E7064881E712
:1006B800004402580090D0030024744C20BCBE4B68
:1006C8000024744A40787D0100093D001D4CD4F88F
:1006D800E03007B543F00073C4F8E030D4F8E030F8
:1006E80003F0007301200093009BFFF7F9FEFFF76A
:1006F80041FF012202210020FFF7FAFE124B1B687E
:1007080003F0F003702B114B0BBFD3F80421D3F87F
:10071800142142F0010242F001020CBFC3F8042187
:10072800C3F81421FFF720FED4F8D43043F00103B6
:10073800C4F8D430D4F8D43003F001030193019BFA
:10074800FEE700BF0044025800ED00E000640258D4
:10075800FEE7FEE7FEE7FEE7FEE7704770477047F3
:10076800FFF74EBE074BD3F8F42042F0020282B0E6
:10077800C3F8F420D3F8F43003F002030193019B8B
:1007880002B0704700440258054BD3F8882042F461
:100798007002C3F888201A6942F010021A61704783
:1007A80000ED00E0044BDA6822F00202DA605A68D1
:1007B8009204FCD5704700BF00480258DFF838D0D3
:1007C800FFF7F0FFFFF7E0FF0C480D490D4A002343
:1007D80002E0D458C4500433C4188C42F9D30A4AEE
:1007E8000A4C002301E013600432A242FBD300F05C
:1007F80011F8FFF76BFF704700800410000000102D
:10080800140000107009100814000010CC0100102A
:10081800FEE7000070B50F4B0F4DAB42A3EB05068A
:1008280007D0B610002455F8043B01349847A64277
:10083800F9D800F07FF8094D094B5E1BAB424FEA2F
:10084800A60606D0002455F8043B01349847A64272
:10085800F9D870BD64091008640910086409100803
:100868006C091008704700BF704700BF024B13B1F6
:10087800024800F005B8704700000000950810080D
:10088800002301461A46184600F014B838B5074D3B
:10089800074C2C1BA41005D0013C55F8043D984783
:1008A800002CF9D1BDE8384000F04AB870091008AA
:1008B8006C0910082DE9F8431B4D06462868984630
:1008C8000F469146FFF7CEFF184B1C681CB32868EB
:1008D80065681F2D22DC4EB96B1C0235636044F835
:1008E8002570FFF7C1FF0020BDE8F88304EB850100
:1008F8000123C1F88890D4F88821AB401A43022E0E
:10090800C4F88821C1F80881E6D1D4F88C211A43AB
:10091800C4F88C21E0E7064C1C60D8E7FFF7A4FF79
:100928004FF0FF30E0E700BF100000103800001063
:100938003C000010F8B500BFF8BC08BC9E467047E4
:0C094800F8B500BFF8BC08BC9E46704724
:100954000000000001020304010203040607080961
:080964007508100801031008DA
:04096C00D902100894
:1009700001000000100000000090D0030090D003A0
:04098000340000102F
:04000005081007C513
:00000001FF
