:020000040810E2
:1000000018100010B1071008C9071008CB07100816
:10001000CD071008CF071008D10710080000000016
:10002000000000000000000000000000D3071008DE
:10003000D507100800000000D7071008D9071008DE
:100040000108100805081008090810080D08100814
:100050001108100815081008190810081D081008C4
:100060002108100825081008290810082D08100874
:100070003108100835081008390810083D08100824
:100080004108100845081008490810084D081008D4
:100090005108100855081008590810085D08100884
:1000A0006108100865081008690810086D08100834
:1000B0007108100875081008790810087D081008E4
:1000C0008108100885081008890810088D08100894
:1000D0009108100895081008990810089D08100844
:1000E000A1081008A508100800000000A9081008C1
:1000F000AD081008B1081008B5081008B9081008B4
:10010000BD081008C1081008C5081008C908100863
:10011000CD081008D1081008D5081008D908100813
:10012000DD081008E1081008E5081008E9081008C3
:10013000ED081008F1081008F5081008F908100873
:10014000FD08100801091008000000000000000070
:1001500005091008090910080D09100811091008EF
:1001600015091008190910081D091008210910089F
:1001700025091008290910082D09100800000000A1
:100180003109100835091008390910083D0910080F
:100190004109100845091008490910084D091008BF
:1001A0005109100855091008590910085D0910086F
:1001B0006109100865091008690910086D0910081F
:1001C0007109100875091008790910087D091008CF
:1001D0008109100885091008890910088D0910087F
:1001E0009109100895091008990910089D0910082F
:1001F000A1091008A5091008A9091008AD091008DF
:10020000B1091008B5091008B9091008BD0910088E
:10021000C1091008C5091008C9091008CD0910083E
:10022000D1091008D5091008D9091008DD091008EE
:10023000E1091008E5091008E9091008ED0910089E
:10024000F1091008F5091008F9091008FD0910084E
:10025000010A1008050A1008090A10080D0A1008FA
:10026000110A1008150A1008190A10081D0A1008AA
:10027000210A1008250A1008290A10082D0A10085A
:10028000310A1008350A1008390A10080000000069
:100290003D0A1008410A100830B5434B434819691C
:1002A00011F0380104D010290AD018290AD069E0C9
:1002B0001A68910667D51968C1F3C101C84030BDFD
:1002C0003B4830BD9C6A996ADD6A5A6B05F00105AE
:1002D000C2F3CC02C1F30511554300EE105A0029B8
:1002E000B8EE400A4CD000EE901A14F00304F8EE79
:1002F000600A02D0022C21D023E019689FED261A53
:100300008A0620EE010A0AD51968C1F3C101C84066
:1003100001EE100AB8EE411AC1EE200A03E09FED8B
:100320001F2AC2EE200A00F02FF831EE000AF7EE85
:10033000001A70EE211A20EEA10A12E09FED182A91
:1003400001E09FED182A00F01FF8DFED131A00EE10
:10035000211AB7EE000AC2EE200A31EE000A20EEA2
:10036000800A186BC0F34620401C00EE900AF8EE9D
:10037000600A80EE200ABCEEC00A10EE100A30BD02
:10038000002030BD0B4830BD186BC0F3080001EEF3
:10039000100AB8EE411A7047000000390024744C6E
:1003A00020BCBE4B0024744A004402580090D00385
:1003B00040787D0100093D000901020002D4264871
:1003C00081547047254B02F00F029A1802F8041C62
:1003D000704723490A6860F30A2240F2FA5060F33A
:1003E0001F420A60704770B51D4B1C68C4F302239E
:1003F0000124C3F10705052D2EBF0F2504FA05F5CD
:100400006D1E1E1D072E34BF0023DB1E29409940A0
:1004100004FA03F3BDE870405B1E1A401143CBE7BA
:10042000401EB0F1807F01D3012070470D490E4A74
:1004300048600023F02010708B60072008600020C7
:1004400070470A480168C1F30310072801D103204F
:10045000704701207047000000E400E018ED00E064
:100460000CED00E010E000E023ED00E000ED00E026
:1004700070B5DFF88850DFF888600C4629684908B5
:1004800040EA4100286042B9FFF7DBFF03282CD186
:10049000286940084000286109E0012A18D1FFF7C7
:1004A000D0FF012821D1686920F00200686131681D
:1004B00041F004013160BFF34F8FBFF36F8F012C08
:1004C0000CBF30BF20BF306820F00400306070BD2A
:1004D000FFF7B7FF032804D1286920F00400286142
:1004E00070BD686920F00400686170BD80B5FFF7D9
:1004F000A8FF032818BF40BF20BF01BD0048025815
:1005000010ED00E080B5DFF87000016841F4804133
:1005100001608121006800F4804000900098DFF8BD
:100520005C00026861F313220260036843F0010378
:1005300003600320FFF74DFFFFF7AEFE104A114B9B
:1005400011681268C1F3032102F00F02595C9A5C32
:100550000D4B01F01F01C84002F01F020B49D040B3
:1005600008601860002000F013F808B1012002BDF7
:1005700000F030F8002002BDD84402580044024088
:1005800018440258A4061008100000100C000010B7
:1005900038B50E4D04462878A8B10D4A13684FF4BB
:1005A0007A71B1FBF0F0B3FBF0F0FFF739FF50B90F
:1005B000102C08D2002221464FF0FF30FFF713FF26
:1005C000AC60002032BD012032BD00BF0000001031
:1005D0000C000010064881B0016841F00201016082
:1005E000006800F002000090009801B0704700BF62
:1005F000F44402581CB5184CE06840F00070E0600C
:10060000E06800F0007000900120009900F02AF8E6
:10061000FFF76CFF012202210020FFF729FF0F499D
:100620000F480A68C2F30311072904D1016841F099
:100630000101016003E0016941F001010161FFF77F
:1006400061FF206840F001002060216801F0010195
:1006500000910098FEE70000D444025800ED00E04D
:100660000465025802490A68104308607047000098
:10067000106502580948816F41F470018167026872
:1006800042F01002026070470548816821F00201C3
:10069000816001688A04FCD57047000010ED00E01D
:1006A0000448025800000000010203040102030490
:1006B000060708090EE002684368821808305FEAFE
:1006C000C37C44BF4B445B1E52F804CB43F804CBBD
:1006D000091FF9D150F8041B0029ECD17047000024
:1006E00010B5074979441831064C7C44163404E0AF
:1006F0000A68081D891888470146A142F8D110BD33
:100700007C0000008C0000004EF68851CEF2000103
:10071000086840F470000860BFF34F8FBFF36F8F1D
:100720004FF00170E1EE100A7047000000F00FF882
:10073000002801D0FFF7D4FFAFF300800020AFF313
:100740000080AFF30080FFF755FF00F002F80120B2
:10075000704700F001B8000000F000F80746384686
:1007600000F002F8FBE7000080B5AFF30080024A1A
:1007700011001820ABBEFBE72600020039FFFFFF87
:1007800014000000680000000000001000000000DD
:100790004EF6A550CFF6F560014603B4684680F3E7
:1007A0000988AFF30080FFF7AFFFFFF7BFFF00003E
:1007B00002488047024880470248004789061008DF
:1007C0007506100891071008FEE7FEE7FEE7FEE752
:1007D000FEE770477047704700F000B80248416874
:1007E00002788A1842607047000000100100000083
:1007F00000000000100000000090D0030090D00323
:10080000FFF7FEBFFFF7FEBFFFF7FEBFFFF7FEBF1C
:10081000FFF7FEBFFFF7FEBFFFF7FEBFFFF7FEBF0C
:10082000FFF7FEBFFFF7FEBFFFF7FEBFFFF7FEBFFC
:10083000FFF7FEBFFFF7FEBFFFF7FEBFFFF7FEBFEC
:040A4000FFF7FEBFFF
:040000050810079147
:00000001FF
