:020000040800F2
:1000000098D40324A93A0408C1FF03082D3E04082C
:1000100031000408450004086100040800000000E5
:1000200000000000000000000000000055870208EA
:100030007300040800000000FD8602083DE202088B
:100040001141040815410408194104081D41040820
:100050002141040825410408294104082D410408D0
:10006000314104083541040839410408E500040819
:10007000F10004083D4104084141040845410408D9
:10008000494104084D410408514104085541040800
:10009000594104085D4104086141040865410408B0
:1000A000694104086D410408714104087541040860
:1000B000794104087D410408814104088541040810
:1000C000894104088D4104089141040895410408C0
:1000D000994104089D410408A1410408A541040870
:1000E000E9000408A941040800000000AD4104082B
:1000F000B1410408B5410408B9410408BD410408F0
:10010000C1410408C5410408C9410408CD4104089F
:10011000D1410408D541040875000408D9410408F8
:10012000DD410408E1410408E5410408E94104080F
:10013000ED410408F1410408F5410408F9410408BF
:10014000FD41040801420408000000000000000016
:1001500005420408094204080D420408114204083B
:1001600015420408194204081D42040821420408EB
:1001700025420408294204082D420408000000001A
:10018000314204083542040839420408A500040835
:100190003D4204084142040845420408494204081B
:1001A0007B0004084D420408810004085142040801
:1001B00055420408594204085D420408614204089B
:1001C00065420408694204086D420408714204084B
:1001D00075420408794204087D42040881420408FB
:1001E00085420408894204088D42040891420408AB
:1001F00095420408994204089D420408A14204085B
:10020000A5420408A9420408AD420408B14204080A
:10021000B5420408B9420408BD420408C1420408BA
:10022000C5420408870004088D0004089F000408E4
:10023000C9420408CD420408D1420408D54204084A
:10024000D9420408DD420408E1420408E5420408FA
:10025000E9420408ED420408F1420408F5420408AA
:10026000F9420408FD420408014304080543040858
:10027000094304080D430408114304081543040806
:10028000194304081D43040821430408000000002A
:1002900025430408294304084344444404F9FFFF68
:1002A000FF2FF9FFFFFF1FF8FFFFFF1FF8FFFFFF02
:1002B0000FF8FFFFFF0FF7FFFFFF0FF7FFFFFF0E26
:1002C000F6FFFFFF0EF6FFFFFF0EF6FFFFFF0DF537
:1002D000FFFFFF0DF5FFFFFF0DF4FFFFFF0CF4FF25
:1002E000FFFF0CF4FFFFFF0CF3FFFFFF0BF3FFFF1B
:1002F000FF0BF2FFFFFF0AF2FFFFFF0AF2FFFFFF13
:100300000AF1FFFFFF09F1FFFFFF09F1FFFFFF09FE
:10031000F0FFFFFF08F0FFFFFF08E0FFFFFF08E02E
:10032000FFFFFF07E0FFFFFF07D0FFFFFF06D0FF43
:10033000FFFF06C0FFFFFF06C0FFFFFF05C0FFFF76
:10034000FF05B0FFFFFF05B0FFFFFF04B0FFFFFF99
:1003500004A0FFFFFF04A0FFFFFF0390FFFFFF03C8
:1003600090FFFFFF0390FFFFFF0280FFFFFF0200EF
:10037000000000000000000000000000000000007D
:10038000000000000000000000000000000000006D
:1003900000004144444403F4FFFFFF0BF4FFFFFF60
:1003A0000BF4FFFFFF0BF4FFFFFF0BF4FFFFFF0B4E
:1003B000F4FFFFFF0BF4FFFFFF0BF4FFFFFF0BF653
:1003C000FFFFFF1F000050FFFFFFFF02F5FFFFFFD1
:1003D0000F000040FFFFFFFF01F4FFFFFF0D0000D3
:1003E00030FFFFFFFF00F3FFFFFF0C000010FFFFD7
:1003F000FFDF00F2FFFFFF0B000000FFFFFFCF0059
:10040000F0FFFFFF0A000000FEFFFFBF00E0FFFF5C
:10041000FF09000000FDFFFFAF00D0FFFFFF080055
:100420000000FCFFFF9F00C0FFFFFF07000000FB74
:10043000FFFF8F00B0FFFFFF06000000FAFFFF7F05
:1004400000A0FFFFFF05000000F9FFFF6F0090FF15
:10045000FFFF03000000F8FFFF5F0080FFFFFF02C7
:10046000000000F6FFFF3F0070FFFFFF01000000EB
:10047000F5FFFF2F0050FFFFFF00000000F4FFFF1B
:100480001F0040FFFFEF00000000F3FFFF0F0030F0
:10049000FFFFDF00000000F2FFFF0E0020FFFFCF94
:1004A00000000000F1FFFF0D0010FFFFBF00000083
:1004B00000F0FFFF0C0000FFFFAF00000000E0FFB6
:1004C000FF0B0000FEFF9F00000000D0FFFF0A00AE
:1004D00000FDFF7F00000000B0FFFF090000B8BB77
:1004E0005B0000000070BBBB0500000000000000C6
:1004F0000000000000F7FF9F0000000000FDFF3F2C
:10050000000000000000000000000000000000FAF1
:10051000FF5F0000000010FFFF0E00000000000061
:10052000000000000000000000FEFF2F000000009F
:1005300050FFFF0A00000000000000000000000063
:10054000000030FFFF0D0000000090FFFF070000DB
:1005500000000000000000000000000060FFFF0934
:1005600000000000C0FFFF030000000000000000CA
:10057000000000000000A0FFFF0600000000F1FFE7
:10058000EF0000000000000000000000000000007C
:10059000E0FFFF0200000000F5FFBF0000000000C8
:1005A00000000000000000000000F2FFDF0000007B
:1005B0000000F8FF7F0000000000000000000000C5
:1005C00000000000F6FFAF0000000000FCFF3F004D
:1005D0000000000000000000000000000000FAFF22
:1005E0006F0000000010FFFF0E0000000000000080
:1005F0000000000000000000FDFF2F000000005080
:10060000FFFF0B00000000000000000000000000E1
:100610000020FFFF0E0000000080FFFF0700000029
:10062000000000000000000000000060FFFF0A0062
:10063000000000C0FFFF04000000000000000000F8
:10064000000000000090FFFF0600000000F1FFFF27
:10065000000000000000000000000000000000D0CA
:10066000FFFF0200000000F4FFBF000000000000D8
:10067000000000000000000000F2FFEF000000009A
:1006800000F8FF8F000000000000000040444444D8
:10069000444444F8FFCF4444444444FCFF8F444462
:1006A000444444040000C0FFFFFFFFFFFFFFFFFFC3
:1006B000FFFFFFFFFFFFFFFFFFFFFFFFFF0D00003A
:1006C000C0FFFFFFFFFFFFFFFFFFFFFFFFFFFFFF79
:1006D000FFFFFFFFFFFFFF0D0000C0FFFFFFFFFF59
:1006E000FFFFFFFFFFFFFFFFFFFFFFFFFFFFFFFF1A
:1006F000FF0D0000C0FFFFFFFFFFFFFFFFFFFFFF39
:10070000FFFFFFFFFFFFFFFFFFFFFF0D0000C0FF28
:10071000FFFFFFFFFFFFFFFFFFFFFFFFFFFFFFFFE9
:10072000FFFFFFFFFF0D0000000000000000E0FFE2
:10073000FF0100000000F3FFBF0000000000000008
:100740000000000000000000F2FFDF0000000000D9
:10075000F7FF7F0000000000000000000000000024
:100760000000F6FF9F0000000000FBFF3F000000BC
:10077000000000000000000000000000FAFF5F0021
:1007800000000000FEFF0E0000000000000000005E
:10079000000000000000FDFF1F0000000030FFFF10
:1007A0000B0000000000000000000000000000201E
:1007B000FFFF0D0000000070FFFF070000000000B9
:1007C00000000000000000000060FFFF09000000C2
:1007D00000B0FFFF04000000000000000000000067
:1007E00000000090FFFF0500000000E0FFFF010097
:1007F00000000000000000000000000000D0FFFF2B
:100800000100000000F3FFBF000000000000000036
:1008100000000000000000F2FFDF0000000000F711
:10082000FF8F00000000000000000000000000003A
:1008300000F5FF9F0000000000FBFF4F00000000DC
:100840000000000000000000000000F9FF5F000051
:10085000000000FEFF1F000000000000000000007C
:100860000000000000FDFF1F0000000030FFFF0C33
:10087000000000000000000000000000000010FF69
:10088000FF0D0000000070FFFF08000000000000E6
:10089000000042444444444484FFFF4B44444444E5
:1008A000B4FFFF484444444444010000F6FFFFFF06
:1008B000FFFFFFFFFFFFFFFFFFFFFFFFFFFFFFFF48
:1008C000FFFFFF040000F6FFFFFFFFFFFFFFFFFF3A
:1008D000FFFFFFFFFFFFFFFFFFFFFFFFFF04000021
:1008E000F6FFFFFFFFFFFFFFFFFFFFFFFFFFFFFF21
:1008F000FFFFFFFFFFFFFF040000F6FFFFFFFFFF0A
:10090000FFFFFFFFFFFFFFFFFFFFFFFFFFFFFFFFF7
:10091000FF040000F6FFFFFFFFFFFFFFFFFFFFFFE9
:10092000FFFFFFFFFFFFFFFFFFFFFF0400000000CE
:1009300000000000FDFF3F0000000040FFFF0B0033
:100940000000000000000000000000000020FFFF89
:100950000E0000000080FFFF080000000000000003
:100960000000000000000050FFFF0A00000000C06F
:10097000FFFF040000000000000000000000000075
:100980000090FFFF0600000000F1FFFF01000000E3
:100990000000000000000000000000D0FFFF030086
:1009A000000000F4FFCF0000000000000000000085
:1009B0000000000000F1FFEF0000000000F8FF8FD2
:1009C000000000000000000000000000000000F532
:1009D000FFAF0000000000FBFF4F00000000000020
:1009E000000000000000000000F9FF7F0000000090
:1009F00000FFFF1F000000000000000000000000DA
:100A0000000000FCFF3F0000000040FFFF0C000062
:100A100000000000000000000000000010FFFF0EBA
:100A20000000000070FFFF08000000000000000050
:100A300000000000000050FFFF0B00000000B0FFAE
:100A4000FF050000000000000000000000000000A2
:100A500090FFFF0700000000E0FFFF010000000022
:100A600000000000000000000000C0FFFF030000C5
:100A70000000F4FFCF0000000000000000000000B4
:100A800000000000F1FFEF0000000000F7FF8F0002
:100A90000000000000000000000000000000F5FF62
:100AA000BF0000000000FBFF5F000000000000002E
:100AB0000000000000000000F8FF7F0000000000C0
:100AC000FEFF1F000000000000000000000000000A
:100AD00000008688280000000010888807000000B9
:100AE0000000000000000000000000000000000006
:100AF00060FFFF0300000000000000000000000095
:100B00000000000060FFFF03000000000000000084
:100B1000000000000000000060FFFF030000000074
:100B200000000000000000000000000060FFFF0364
:100B300000000000000000000000000000000000B5
:100B400060FFFF0300000000000000000000000044
:100B50000000000060FFFF03000000000000000034
:100B6000000000000000000060FFFF030000000024
:100B700000000000000000000000000060FFFF0314
:100B80000000000000000000000000000000000065
:100B900060FFFF03000000000000000000000000F4
:100BA0000000000060FFFF030000000000000000E4
:100BB000000000000000000060FFFF0300000000D4
:100BC0000000000000000000000051A8ECFFFFEF53
:100BD000CD9B4601000000000000000020C7FFFF81
:100BE000FFFFFFFFFFFFFFDF5901000000000020B3
:100BF000F9FFFFFFFFFFFFFFFFFFFFFFFFBF060043
:100C0000000000F7FFFFFFFFFFFFFFFFFFFFFFFFF9
:100C1000FFFF4F000000B1FFFFFFFFFFFFFFFFFFDF
:100C2000FFFFFFFFFFFF4F000020FDFFFFFFFFEF73
:100C3000DDFFFFDDFEFFFFFFFFFF4F0000C1FFFFF5
:100C4000FFFF8E0360FFFF031052D9FFFFFF4F002D
:100C500000F9FFFFFF6E000060FFFF03000000B41B
:100C6000FFFF4F0030FFFFFFCF02000060FFFF03D8
:100C700000000000B3FF4F00A0FFFFFF1E000000B8
:100C800060FFFF030000000000D44F00F1FFFFFFF2
:100C90000600000060FFFF030000000000002600C7
:100CA000F5FFFFEF0100000060FFFF030000000000
:100CB00000000000F8FFFFCF0000000060FFFF030E
:100CC0000000000000000000F9FFFFBF000000006E
:100CD00060FFFF030000000000000000FAFFFFCFEC
:100CE0000000000060FFFF030000000000000000A3
:100CF000F9FFFFEF0000000060FFFF0300000000AD
:100D000000000000F8FFFFFF0400000060FFFF0389
:100D10000000000000000000F4FFFFFF0C000000D6
:100D200060FFFF030000000000000000F1FFFFFF74
:100D30009F00000060FFFF030000000000000000B3
:100D4000A0FFFFFFFF3C000060FFFF03000000006A
:100D50000000000030FFFFFFFFFF6B0160FFFF039B
:100D6000000000000000000000F8FFFFFFFFFFBFD1
:100D700098FFFF03000000000000000000B0FFFF2C
:100D8000FFFFFFFFFFFFFF5902000000000000000F
:100D90000000FAFFFFFFFFFFFFFFFFFFDF7A030006
:100DA00000000000000050FEFFFFFFFFFFFFFFFFFD
:100DB000FFFFEF280000000000000071FDFFFFFFB3
:100DC000FFFFFFFFFFFFFFFF3B00000000000000F0
:100DD00050E9FFFFFFFFFFFFFFFFFFFFFF080000DD
:100DE00000000000000073EBFFFFFFFFFFFFFFFFAD
:100DF000FFBF0100000000000000000092FFFFFFA5
:100E0000FFFFFFFFFFFF0B000000000000000000DD
:100E100060FFFF54D8FFFFFFFFFF8F0000000000BE
:100E20000000000060FFFF030082FEFFFFFFFF02E3
:100E3000000000000000000060FFFF03000091FFC1
:100E4000FFFFFF08000000000000000060FFFF033C
:100E5000000000F8FFFFFF0C000000000000000091
:100E600060FFFF03000000D0FFFFFF1F0000000035
:100E70000000000060FFFF0300000070FFFFFF3F65
:100E8000000000000000000060FFFF0300000030D1
:100E9000FFFFFF4F000000000000000060FFFF03A5
:100EA00000000020FFFFFF4F0000000000000000D6
:100EB00060FFFF0300000020FFFFFF3F0000000075
:100EC0000000000060FFFF0300000030FFFFFF1F75
:100ED000020000000000000060FFFF03000000703F
:100EE000FFFFFF0DAE0200000000000060FFFF03E7
:100EF000000000C0FFFFFF08FE8E010000000000A0
:100F000060FFFF03000000F6FFFFFF02FEFF8E02FE
:100F10000000000060FFFF03000060FFFFFF9F0074
:100F2000FEFFFFBF2600000060FFFF030030FAFF56
:100F3000FFFF1D00FEFFFFFFFF8C350060FFFF136A
:100F400073FCFFFFFFEF0300FEFFFFFFFFFFFFEF5C
:100F5000EEFFFFFEFFFFFFFFFF4E0000FEFFFFFF63
:100F6000FFFFFFFFFFFFFFFFFFFFFFFFCF020000BC
:100F7000FAFFFFFFFFFFFFFFFFFFFFFFFFFFFFFF86
:100F80000800000020D8FFFFFFFFFFFFFFFFFFFF6B
:100F9000FFFFFF2900000000000072EBFFFFFFFFD2
:100FA000FFFFFFFFFFBF1700000000000000000070
:100FB0004297CBEDFEFFFF9C4701000000000000C0
:100FC000000000000000000060FFFF0300000000C0
:100FD00000000000000000000000000060FFFF03B0
:100FE0000000000000000000000000000000000001
:100FF00060FFFF0300000000000000000000000090
:101000000000000060FFFF0300000000000000007F
:10101000000000000000000060FFFF03000000006F
:1010200000000000000000000000000060FFFF035F
:1010300000000000000000000000000000000000B0
:1010400060FFFF030000000000000000000000003F
:101050000000000060FFFF0300000000000000002F
:10106000000000000000000060FFFF03000000001F
:1010700000000000000000000000000060FFFF030F
:101080000000000000000000000000000000000060
:1010900060FFFF03000000000000000000000000EF
:1010A0000000000060FFFF030000000000000000DF
:1010B000000000000000000060FFFF0300000000CF
:1010C00000000000000000000000000060FFFF03BF
:1010D0000000000000000000000000001096ECFF7F
:1010E000DE7B0300000000000000000000000000A4
:1010F00000000000000000000000000000000000F0
:101100000020FAFFFFFFFFFFDF06000000000000E5
:1011100000000000000020DDDDDD04000000000014
:1011200000000000000000F7FFFFFFFFFFFFFFCF00
:10113000020000000000000000000000A0FFFFCF40
:10114000000000000000000000000000A0FFFFFF02
:10115000FFFFFFFFFFFF2E00000000000000000067
:101160000000F3FFFF4F000000000000000000003F
:101170000000F9FFFFFFFFFFFFFFFFFFDF0100009F
:101180000000000000000000FAFFFF0C000000005B
:101190000000000000000050FFFFFFEF6A4485FDE3
:1011A000FFFFFF0B00000000000000000030FFFF09
:1011B000FF040000000000000000000000D1FFFF5D
:1011C000FF2C00000080FFFFFF4F00000000000028
:1011D000000000B0FFFFBF000000000000000000A2
:1011E000000000F6FFFFCF0100000000F8FFFFCF76
:1011F000000000000000000000F4FFFF3F000000BE
:10120000000000000000000000FCFFFF3F000000A5
:101210000000D0FFFFFF030000000000000000FB03
:10122000FFFF0A000000000000000000000020FF97
:10123000FFFF0C000000000060FFFFFF080000003F
:101240000000000040FFFFFF03000000000000005E
:101250000000000060FFFFFF07000000000020FF0B
:10126000FFFF0C00000000000000C0FFFFAF000007
:1012700000000000000000000000A0FFFFFF0400CD
:101280000000000000FDFFFF0F0000000000000054
:10129000F5FFFF2F0000000000000000000000002C
:1012A000C0FFFFFF01000000000000FBFFFF2F0058
:1012B000000000000000FCFFFF090000000000002B
:1012C000000000000000E0FFFFFF00000000000041
:1012D00000F9FFFF5F00000000000050FFFFFF0269
:1012E000000000000000000000000000F1FFFFDF30
:1012F00000000000000000F8FFFF6F000000000089
:1013000000D0FFFF9F000000000000000000000070
:101310000000F2FFFFCF00000000000000F7FFFF19
:101320007F000000000000F6FFFF2F00000000001B
:101330000000000000000000F2FFFFCF00000000EE
:10134000000000F7FFFF8F000000000000FDFFFF1E
:101350000800000000000000000000000000F2FF94
:10136000FFCF00000000000000F6FFFF8F0000002C
:10137000000060FFFFEF010000000000000000001F
:1013800000000000F2FFFFCF00000000000000F7A7
:10139000FFFF8F0000000000E1FFFF8F0000000052
:1013A00000000000000000000000F2FFFFCF00007E
:1013B0000000000000F7FFFF7F0000000000F7FFC3
:1013C000FF1E000000000000000000000000000000
:1013D000F1FFFFDF00000000000000F8FFFF6F00DA
:1013E00000000010FEFFFF070000000000000000EA
:1013F000000000000000E0FFFFEF00000000000020
:1014000000F9FFFF5F0000000070FFFFEF01000028
:10141000000000000000000000000000C0FFFFFF0F
:1014200001000000000000FBFFFF2F00000000E1B2
:10143000FFFF7F000000000000000000000000002F
:101440000000A0FFFFFF04000000000000FDFFFF00
:101450000F00000000F8FFFF0D000000000000007A
:10146000000000000000000070FFFFFF0700000008
:10147000000020FFFFFF0C00000010FEFFFF060031
:10148000000000000000000000000000000030FF2D
:10149000FFFF0B000000000060FFFFFF08000000DE
:1014A00090FFFFDF000000000000000000000000CF
:1014B0000000000000FDFFFF3F0000000000C0FF33
:1014C000FFFF03000000F2FFFF5F0000000000309C
:1014D000A7EDFFCE7A020000000000F7FFFFCF016A
:1014E00000000000F7FFFFCF00000000F9FFFF0D34
:1014F0000000000050FCFFFFFFFFFFBF04000000E2
:1015000000E1FFFFFF2B00000070FFFFFF5F000006
:101510000020FFFFFF0500000010FAFFFFFFFFFFA4
:10152000FFFF9F0100000060FFFFFFEF6A3485FDB1
:10153000FFFFFF0B000000A0FFFFCF00000000D264
:10154000FFFFFFFFFFFFFFFFFF1C00000000FAFF8F
:10155000FFFFFFFFFFFFFFFFDF01000000F3FFFFC2
:101560004F00000010FDFFFFFFFFFFFFFFFFFFBF69
:1015700000000000B0FFFFFFFFFFFFFFFFFF2D0097
:10158000000000FAFFFF0C00000090FFFFFFDF5992
:101590004495FEFFFFFF0700000000F8FFFFFFFF7C
:1015A000FFFFFFBF0100000030FFFFFF040000004D
:1015B000F3FFFFFF19000000B1FFFFFF2E00000046
:1015C0000030FBFFFFFFFFFFDF0500000000B0FF62
:1015D000FFBF00000000FAFFFF9F0000000000FBBB
:1015E000FFFF8F000000000020A6ECFFDE7B030061
:1015F00000000000F4FFFF3F00000020FFFFFF0D90
:101600000000000000F2FFFFEF00000000000000FB
:1016100000000000000000000000FBFFFF0A0000C7
:101620000060FFFFFF080000000000A0FFFFFF04B4
:10163000000000000000000000000000000000406A
:10164000FFFFFF03000000A0FFFFFF0300000000FA
:101650000060FFFFFF080000000000000000000025
:101660000000000000C0FFFFAF00000000E0FFFF2F
:10167000FF00000000000020FFFFFF0B0000000043
:101680000000000000000000000000F5FFFF2F0038
:10169000000000F1FFFFCF00000000000000FFFF8E
:1016A000FF0E00000000000000000000000000002D
:1016B00000FCFFFF0900000000F3FFFFBF00000077
:1016C00000000000FDFFFF1F000000000000000000
:1016D00000000000000050FFFFFF0200000000F5C6
:1016E000FFFF9F00000000000000FCFFFF2F000034
:1016F000000000000000000000000000D0FFFF9F7D
:101700000000000000F6FFFF8F0000000000000056
:10171000FBFFFF3F00000000000000000000000091
:101720000000F6FFFF2E0000000000F6FFFF8F0014
:10173000000000000000FAFFFF4F00000000000062
:101740000000000000000000FDFFFF080000000096
:1017500000F6FFFF8F00000000000000FAFFFF4FBF
:101760000000000000000000000000000060FFFF1B
:10177000EF010000000000F6FFFF8F0000000000F6
:101780000000FAFFFF4F0000000000000000000012
:10179000000000E1FFFF8F000000000000F6FFFFE7
:1017A0008F00000000000000FBFFFF3F0000000072
:1017B000000000000000000000F7FFFF1E00000016
:1017C000000000F5FFFF9F00000000000000FCFF8C
:1017D000FF2F00000000000000000000000010FECD
:1017E000FFFF07000000000000F3FFFFAF00000054
:1017F00000000000FDFFFF1F0000000000000000CF
:101800000000000080FFFFEF01000000000000F179
:10181000FFFFCF00000000000000FFFFFF0E0000F0
:1018200000000000000000000000E1FFFF6F00006A
:101830000000000000E0FFFFEF00000000000020BB
:10184000FFFFFF0B00000000000000000000000090
:10185000F8FFFF0D00000000000000A0FFFFFF03E5
:10186000000000000060FFFFFF0800000000000013
:10187000000000000010FEFFFF0600000000000056
:101880000060FFFFFF070000000000A0FFFFFF0453
:10189000000000000000000000000090FFFFDF00DB
:1018A0000000000000000020FFFFFF0D000000000E
:1018B00000F2FFFFEF000000000000000000000049
:1018C00000F2FFFF5F000000000000000000FBFFCF
:1018D000FF9F0000000000FBFFFF8F0000000000E2
:1018E00000000000000000F9FFFF0C0000000000F5
:1018F00000000000F3FFFFFF19000000B1FFFFFF31
:101900001E000000000000000000000020FFFFFF9C
:1019100005000000000000000000A0FFFFFFEF59DD
:101920004496FEFFFFFF07000000000000000000DB
:101930000000A0FFFFCF000000000000000000003A
:1019400010FDFFFFFFFFFFFFFFFFFFAF00000000E4
:101950000000000000000000F3FFFF4F0000000047
:1019600000000000000000D2FFFFFFFFFFFFFFFFAD
:10197000FF1B000000000000000000000000FAFF54
:10198000FF0C000000000000000000000010FBFF42
:10199000FFFFFFFFFFFF8F000000000000000000BE
:1019A00000000020DDDDDD0400000000000000007C
:1019B0000000000050FCFFFFFFFFFFBF030000001E
:1019C0000000000000000000000000000000000017
:1019D000000000000000000000000030B7EDFFCE66
:1019E0006A02000000000000000000001085CADD4F
:1019F000BC7A14000000000000000000000000009D
:101A0000000000000000000040FAFFFFFFFFFFFFA2
:101A10003A0000000000000000000000000000008C
:101A20000000000030FCFFFFFFFFFFFFFFFF2B0067
:101A300000000000000000000000000000000000A6
:101A400000F8FFFFFFFFFFFFFFFFFFEF05000000B3
:101A500000000000000000000000000000A0FFFFE8
:101A6000FFFFFFFFFFFFFFFFFF6F00000000000010
:101A700000000000000000000000F9FFFFFFCF267B
:101A80001152FAFFFFFFFF050000000000000000F8
:101A900000000000000060FFFFFFFF0600000030B4
:101AA000FDFFFFFF1E00000000000000000000001E
:101AB000000000E1FFFFFF4F0000000000D1FFFF2A
:101AC000FF8F000000000000000000000000000088
:101AD000F8FFFFFF06000000000030FFFFFFEF00EF
:101AE00000000000000000000000000000FEFFFFFA
:101AF000DF00000000000000FBFFFFFF040000000B
:101B000000000000000000000040FFFFFF6F000029
:101B10000000000000F6FFFFFF07000000000000CB
:101B200000000000000070FFFFFF2F000000000019
:101B30000000F3FFFFFF08000000000000000000AD
:101B400000000090FFFFFF1F00000000000000F2F7
:101B5000FFFFFF090000000000000000000000007F
:101B6000A0FFFFFF0F00000000000000F1FFFFFFDB
:101B700008000000000000000000000000A0FFFFBF
:101B8000FF1F00000000000000F2FFFFFF06000042
:101B90000000000000000000000090FFFFFF3F0079
:101BA000000000000000F4FFFFFF04000000000040
:101BB0000000000000000070FFFFFF8F0000000029
:101BC000000000F7FFFFFF01000000000000000020
:101BD0000000000040FFFFFFDF00000000000000E9
:101BE000FCFFFFBF0000000000000000000000003C
:101BF0000000FEFFFFFF07000000000030FFFFFFB6
:101C00005F0000000000000000000000000000F87D
:101C1000FFFFFF5F0000000000C0FFFFFF0C00009F
:101C2000000000000000000000000000E1FFFFFFD6
:101C3000FF0500000000F8FFFFFF030000000000A8
:101C400000000000000000000050FFFFFFFF8F00B9
:101C5000000080FFFFFF6F00000000000000000098
:101C600000000000000000F8FFFFFFFF2C0020FB39
:101C7000FFFFFF0600000000000000000000000061
:101C80000000000090FFFFFFFFFF37F9FFFFFF5E3E
:101C90000000000000000000000000000000000044
:101CA0000000F7FFFFFFFFFFFFFFFFBF0200000084
:101CB00000E5EEEEEE040000000000000000004031
:101CC000FEFFFFFFFFFFFFCF040000000000F5FF55
:101CD000FFFF0400000000000000000000D1FFFF33
:101CE000FFFFFF9F03000000000000F5FFFFFF045F
:101CF00000000000000000000030FCFFFFFFFFFFBD
:101D0000BF00000000000000F5FFFFFF040000001E
:101D1000000000000000F7FFFFFFFFFFFFFF1B00B8
:101D20000000000000F5FFFFFF04000000000000BD
:101D30000000A1FFFFFF5DFBFFFFFFBF01000000F0
:101D40000000F5FFFFFF030000000000000010FC92
:101D5000FFFFAF01B0FFFFFFFF1B0000000000F519
:101D6000FFFFFF0200000000000000C1FFFFFF08AE
:101D70000000FBFFFFFFCF0100000000F5FFFFFFA9
:101D80000100000000000000FBFFFFAF000000A00A
:101D9000FFFFFFFF1C00000000F5FFFFEF00000049
:101DA0000000000070FFFFFF0D00000000FAFFFFC1
:101DB000FFCF01000000F6FFFFBF000000000000A1
:101DC00000E2FFFFFF0400000000A0FFFFFFFF1C78
:101DD000000000F7FFFF9F00000000000000F9FF77
:101DE000FFCF000000000000FAFFFFFFCF0100005E
:101DF000F8FFFF7F00000000000010FEFFFF6F00F3
:101E0000000000000090FFFFFFFF1C0000F9FFFF33
:101E10004F00000000000070FFFFFF1F00000000E7
:101E2000000000F9FFFFFFDF0100FBFFFF1F0000C4
:101E300000000000C0FFFFFF0D00000000000000D8
:101E400090FFFFFFFF2D00FDFFFF0B0000000000D3
:101E500000F1FFFFFF0A0000000000000000F8FF93
:101E6000FFFFDF12FFFFFF07000000000000F4FF8C
:101E7000FFFF09000000000000000080FFFFFFFFDF
:101E80007DFFFFFF02000000000000F6FFFFFF08DB
:101E9000000000000000000000F8FFFFFFFFFFFF50
:101EA000BF00000000000000F7FFFFFF0800000077
:101EB00000000000000080FFFFFFFFFFFF5F000049
:101EC0000000000000F7FFFFFF0900000000000015
:101ED00000000000F7FFFFFFFFFF0D000000000003
:101EE0000000F7FFFFFF0B000000000000000000F3
:101EF0000070FFFFFFFFFF0600000000000000F67B
:101F0000FFFFFF0E0000000000000000000000F7CF
:101F1000FFFFFFFF0300000000000000F4FFFFFFD1
:101F20003F000000000000000000000060FFFFFF15
:101F3000FF3E00000000000000F2FFFFFF8F0000E6
:101F400000000000000000000000FBFFFFFFEF04A6
:101F5000000000000000E0FFFFFFEF0100000000B4
:101F600000000000000050FFFFFFFFFF4E000000D8
:101F700000000090FFFFFFFF0900000000000000CC
:101F8000000000E3FFFFFFFFFFEF04000000000080
:101F900040FFFFFFFF6F0000000000000000003066
:101FA000FEFFFFFFFFFFFF4F000000000000FCFFEF
:101FB000FFFFFF050000000000000000F6FFFFBF6C
:101FC000F5FFFFFFFF050000000000F4FFFFFFFF2B
:101FD0008F01000000000000B3FFFFFF1C50FFFF57
:101FE000FFFF5F000000000090FFFFFFFFFF7E0289
:101FF00000000010B5FFFFFFDF0200F4FFFFFFFF4E
:10200000050000000000FCFFFFFFFFFFDF8967976E
:10201000FBFFFFFFFF2D000040FFFFFFFF5F000001
:10202000000000C1FFFFFFFFFFFFFFFFFFFFFFFFFB
:10203000FFCF01000000E4FFFFFFFF0600000000EB
:1020400010FBFFFFFFFFFFFFFFFFFFFFFFFF090088
:1020500000000040FEFFFFFF6F000000000080FF57
:10206000FFFFFFFFFFFFFFFFFFFF5D00000000001D
:1020700000E4FFFFFFFF060000000000B3FFFFFFCA
:10208000FFFFFFFFFFFF8E0100000000000030FE99
:10209000FFFFFF7F000000000000A3FEFFFFFFFF27
:1020A000FFFF6C010000000000000000C3CCCCCC9E
:1020B000CC0400000000000040A8ECFFDE9B1600EE
:1020C000000000000000000000000000000000F818
:1020D000FFFFFF1FF7FFFFFF0FF6FFFFFF0DF5FFED
:1020E000FFFF0CF4FFFFFF0BF3FFFFFF0AF2FFFF00
:1020F000FF09F1FFFFFF08E0FFFFFF07D0FFFFFF31
:1021000006C0FFFFFF05B0FFFFFF03A0FFFFFF02B8
:1021100090FFFFFF0180FFFFFF0070FFFFEF0060F7
:10212000FFFFDF0040FFFFCF0030FFFFBF0020FFB9
:10213000FFAF0010FFFF9F0000FFFF7F0000BABB52
:102140005B0000000000000000FBFFFFFF6F0000CD
:102150000000000080FFFFFFFF07000000000000FC
:10216000F5FFFFFF7F00000000000030FFFFFFFFD2
:1021700008000000000000D1FFFFFFAF00000000DA
:10218000000000F9FFFFFF1C00000000000040FFFE
:10219000FFFFDF01000000000000D1FFFFFF3F0054
:1021A000000000000000F9FFFFFF07000000000032
:1021B0000030FFFFFFCF00000000000000B0FFFF75
:1021C000FF3F00000000000000F4FFFFFF080000D8
:1021D0000000000000FDFFFFEF0100000000000014
:1021E00050FFFFFF6F00000000000000C0FFFFFF76
:1021F0000D00000000000000F4FFFFFF05000000DC
:1022000000000000FBFFFFDF0000000000000020D6
:10221000FFFFFF7F0000000000000070FFFFFF1FB6
:1022200000000000000000D0FFFFFF0A00000000D7
:10223000000000F3FFFFFF0400000000000000F8B2
:10224000FFFFDF0000000000000000FDFFFF9F0017
:1022500000000000000010FFFFFF4F000000000022
:10226000000050FFFFFF0E0000000000000080FF94
:10227000FFFF0A00000000000000C0FFFFFF060093
:10228000000000000000F0FFFFFF0300000000005E
:102290000000F2FFFFEF0000000000000000F4FF6C
:1022A000FFBF0000000000000000F6FFFF9F0000DD
:1022B000000000000000F8FFFF7F000000000000A9
:1022C0000000FAFFFF5F0000000000000000FBFFBD
:1022D000FF3F0000000000000000FBFFFF2F000098
:1022E000000000000000FCFFFF1F000000000000D5
:1022F0000000FDFFFF0F0000000000000000FDFFD8
:10230000FF0F0000000000000000FEFFFF0E0000B5
:10231000000000000000FDFFFF0F000000000000B3
:102320000000FDFFFF0F0000000000000000FCFFA8
:10233000FF0F0000000000000000FBFFFF1F000077
:10234000000000000000FBFFFF3F00000000000055
:102350000000FAFFFF4F0000000000000000F8FF3F
:10236000FF5F0000000000000000F6FFFF8F00008C
:10237000000000000000F4FFFFAF000000000000BC
:102380000000F2FFFFCF0000000000000000F0FF9F
:10239000FFFF0100000000000000C0FFFFFF04007D
:1023A00000000000000080FFFFFF080000000000A8
:1023B000000050FFFFFF0D0000000000000010FFB4
:1023C000FFFF2F0000000000000000FDFFFF7F0066
:1023D00000000000000000F8FFFFBF000000000048
:1023E000000000F3FFFFFF0100000000000000D02C
:1023F000FFFFFF070000000000000070FFFFFF0D5F
:102400000000000000000020FFFFFF5F0000000050
:1024100000000000FBFFFFBF000000000000000004
:10242000F4FFFFFF0300000000000000C0FFFFFFFB
:102430000A0000000000000050FFFFFF4F000000F6
:102440000000000000FDFFFFCF00000000000000C2
:1024500000F4FFFFFF0500000000000000B0FFFFD8
:10246000FF1D0000000000000030FFFFFF9F000084
:10247000000000000000F9FFFFFF04000000000062
:102480000000D1FFFFFF1E0000000000000040FF21
:10249000FFFFAF0000000000000000F9FFFFFF0792
:1024A00000000000000000D1FFFFFF5F00000000FF
:1024B00000000030FFFFFFEF0300000000000000FD
:1024C000F6FFFFFF2E0000000000000080FFFFFF6E
:1024D000DF0200000000000000FBFFFFFF2EB0FF46
:1024E000FFFFEF020000000000000000FBFFFFFF05
:1024F0001D0000000000000000B0FFFFFFAF000063
:1025000000000000000010FCFFFFFF0700000000BB
:1025100000000000D1FFFFFF4F000000000000009E
:102520000030FEFFFFDF010000000000000000F5AA
:10253000FFFFFF09000000000000000090FFFFFF08
:102540004F000000000000000010FDFFFFDF010051
:1025500000000000000000F3FFFFFF080000000083
:102560000000000090FFFFFF2E00000000000000B0
:102570000010FEFFFF9F000000000000000000F6BA
:10258000FFFFFF030000000000000000D0FFFFFF7E
:102590000A000000000000000050FFFFFF2F0000B5
:1025A00000000000000000FDFFFF9F000000000091
:1025B00000000000F6FFFFFF010000000000000027
:1025C00000E1FFFFFF07000000000000000080FFA7
:1025D000FFFF0D000000000000000020FFFFFF3F94
:1025E000000000000000000000FBFFFF8F00000063
:1025F000000000000000F6FFFFDF00000000000008
:10260000000000F2FFFFFF030000000000000000D8
:10261000C0FFFFFF06000000000000000080FFFF79
:10262000FF0A000000000000000030FFFFFF0D0067
:102630000000000000000000FEFFFF2F000000006F
:102640000000000000FBFFFF5F0000000000000032
:102650000000F8FFFF7F000000000000000000F510
:10266000FFFF9F000000000000000000F3FFFFBF1D
:10267000000000000000000000F1FFFFDF0000008C
:10268000000000000000E0FFFFFF0000000000006D
:10269000000000D0FFFFFF0100000000000000006C
:1026A000B0FFFFFF010000000000000000A0FFFFDE
:1026B000FF020000000000000000A0FFFFFF030079
:1026C00000000000000000A0FFFFFF03000000006A
:1026D0000000000090FFFFFF040000000000000069
:1026E00000A0FFFFFF030000000000000000A0FFAB
:1026F000FFFF030000000000000000B0FFFFFF022A
:102700000000000000000000C0FFFFFF010000000B
:102710000000000000D0FFFFFF01000000000000EB
:102720000000E0FFFFFF000000000000000000F1DB
:10273000FFFFDF000000000000000000F4FFFFBF0B
:10274000000000000000000000F6FFFF9F000000F6
:10275000000000000000F9FFFF7F00000000000003
:10276000000000FCFFFF5F00000000000000001000
:10277000FFFFFF2F000000000000000050FFFFFFE0
:102780000D000000000000000090FFFFFF0A0000A5
:10279000000000000000E0FFFFFF06000000000056
:1027A000000000F4FFFFFF03000000000000000035
:1027B000F8FFFFDF000000000000000000FDFFFF49
:1027C0008F000000000000000050FFFFFF3F0000EE
:1027D000000000000000B0FFFFFF0D00000000003F
:1027E000000000F2FFFFFF070000000000000000F3
:1027F000F9FFFFFF010000000000000010FEFFFFD6
:102800009F000000000000000090FFFFFF2F00006D
:10281000000000000000F2FFFFFF0A0000000000BF
:10282000000000FAFFFFFF0300000000000000307E
:10283000FFFFFF9F0000000000000000C0FFFFFF3F
:102840002E0000000000000000F8FFFFFF0800005D
:10285000000000000030FFFFFFDF0100000000006B
:102860000000D1FFFFFF4F0000000000000000FA51
:10287000FFFFFF090000000000000070FFFFFFDF06
:102880000100000000000000F5FFFFFF4F00000006
:102890000000000030FEFFFFFF0700000000000006
:1028A00000E3FFFFFFAF0000000000000030FEFF6C
:1028B000FFFF1D00000000000000E2FFFFFFEF022D
:1028C000000000000000000000000000000000F018
:1028D000FFFF0000000000000000000000000000FA
:1028E000000000F0FFFF00000000000000000000FA
:1028F00000000000000000F0FFEF000000000000FA
:102900000000000000000000000000F0FFEF0000E9
:10291000000000000000000000000000000000E0D7
:10292000FFEF0000000000000000000010000000A9
:10293000000000E0FFEF00000000000010000000B9
:10294000E6060000000000E0FFDF000000000000DD
:10295000E6050010FECF0400000000E0FFDF0000ED
:10296000000000C3FF1D0090FFFFAF02000000D079
:10297000FFDF00000000A2FFFF8F00F3FFFFFF7EDC
:10298000000000D0FFCF00000070FEFFFFEF0281CB
:10299000FFFFFFFF4D0000D0FFCF000040FDFFFF15
:1029A000FF9F0100A2FFFFFFFF2B00D0FFCF002001
:1029B000FBFFFFFFAF02000000B3FFFFFFFF18C0E7
:1029C000FFBF10F8FFFFFFBF030000000000C4FFBF
:1029D000FFFFDFC5FFBFE6FFFFFFCF0400000000E1
:1029E000000000D6FFFFFFFFFFFFFFFFFFDF060035
:1029F0000000000000000010E7FFFFFFFFFFFFFFE7
:102A0000EF070000000000000000000010F9FFFFC9
:102A1000FFFFFFEF180000000000000000000000B2
:102A20000020FAFFFFFFFF29000000000000000067
:102A3000000000000000E5FFFFFFEF0600000000BF
:102A4000000000000000000000C4FFFFFFFFFFCFF8
:102A5000040000000000000000000000B3FFFFFFC2
:102A6000FFFFFFFFBF030000000000000000009216
:102A7000FFFFFFFFFFFFFFFFFFAF020000000000AE
:102A8000000081FEFFFFFFD9FFDFF9FFFFFF8F018D
:102A9000000000000060FEFFFFFF3CD0FFCF30FCD5
:102AA000FFFFFF7E0000000050FDFFFFFF6E00D023
:102AB000FFCF0060FEFFFFFF5D000040FCFFFFFF57
:102AC0009F0100D0FFDF000091FFFFFFFF4C00F4EB
:102AD000FFFFFFBF030000D0FFDF000000B3FFFFD8
:102AE000FFFF03B0FFFFEF05000000E0FFDF000085
:102AF0000000D5FFFFAF0030FFFF1800000000E02E
:102B0000FFDF0000000010F8FF2F0000F92B00008D
:102B1000000000E0FFEF000000000020FB080000C4
:102B200051000000000000E0FFEF00000000000086
:102B30004001000000000000000000F0FFEF000076
:102B4000000000000000000000000000000000F095
:102B5000FFEF000000000000000000000000000087
:102B6000000000F0FFFF0000000000000000000077
:102B700000000000000000F0FFFF00000000000067
:102B80000000000000000000000000F0FFFF000057
:102B900000000000000000000000000000000050E5
:102BA000555500000000000000000000000000007B
:102BB000000000000080FFFFFF0000000000000098
:102BC000000000000000000000000000000080FF86
:102BD000FFFF0000000000000000000000000000F7
:102BE0000000000000000080FFFFFF000000000068
:102BF00000000000000000000000000000000000D5
:102C000080FFFFFF00000000000000000000000047
:102C100000000000000000000080FFFFFF00000037
:102C200000000000000000000000000000000000A4
:102C3000000080FFFFFF0000000000000000000017
:102C4000000000000000000000000080FFFFFF0007
:102C50000000000000000000000000000000000074
:102C60000000000080FFFFFF0000000000000000E7
:102C70000000000000000000000000000080FFFFD6
:102C8000FF00000000000000000000000000000045
:102C900000000000000080FFFFFF000000000000B7
:102CA00000000000000000000000000000000080A4
:102CB000FFFFFF0000000000000000000000000017
:102CC000000000000000000080FFFFFF0000000087
:102CD00000000000000000000000000000000000F4
:102CE0000080FFFFFF000000000000000000000067
:102CF0000000000000000000000080FFFFFF000057
:102D000000000000000000000000000000000000C3
:102D100000000080FFFFFF00000000000000000036
:102D200000000000000000000000000080FFFFFF26
:102D30000000000000000000000000000000000093
:102D4000000000000080FFFFFF0000000000000006
:102D5000000000000000000000000000000080FFF4
:102D6000FFFF000000000000000000000000000065
:102D70000000000000000080FFFFFF0000000000D6
:102D80000000000000000000000000000000000043
:102D900080FFFFFF000000000000000000000000B6
:102DA00000000000000000000080FFFFFF000000A6
:102DB00000000000000000004344444444444444F4
:102DC0004444A4FFFFFF4444444444444444444432
:102DD00014FCFFFFFFFFFFFFFFFFFFFFFFFFFFFFF1
:102DE000FFFFFFFFFFFFFFFFFF4FFCFFFFFFFFFFA6
:102DF000FFFFFFFFFFFFFFFFFFFFFFFFFFFFFFFFE3
:102E0000FFFF4FFCFFFFFFFFFFFFFFFFFFFFFFFF85
:102E1000FFFFFFFFFFFFFFFFFFFFFF4FFCFFFFFF75
:102E2000FFFFFFFFFFFFFFFFFFFFFFFFFFFFFFFFB2
:102E3000FFFFFFFF4FFCFFFFFFFFFFFFFFFFFFFF55
:102E4000FFFFFFFFFFFFFFFFFFFFFFFFFF4FFCFF45
:102E5000FFFFFFFFFFFFFFFFFFFFFFFFFFFFFFFF82
:102E6000FFFFFFFFFFFF4F00000000000000000019
:102E70000080FFFFFF0000000000000000000000D5
:102E80000000000000000000000080FFFFFF0000C5
:102E90000000000000000000000000000000000032
:102EA00000000080FFFFFF000000000000000000A5
:102EB00000000000000000000000000080FFFFFF95
:102EC0000000000000000000000000000000000002
:102ED000000000000080FFFFFF0000000000000075
:102EE000000000000000000000000000000080FF63
:102EF000FFFF0000000000000000000000000000D4
:102F00000000000000000080FFFFFF000000000044
:102F100000000000000000000000000000000000B1
:102F200080FFFFFF00000000000000000000000024
:102F300000000000000000000080FFFFFF00000014
:102F40000000000000000000000000000000000081
:102F5000000080FFFFFF00000000000000000000F4
:102F6000000000000000000000000080FFFFFF00E4
:102F70000000000000000000000000000000000051
:102F80000000000080FFFFFF0000000000000000C4
:102F90000000000000000000000000000080FFFFB3
:102FA000FF00000000000000000000000000000022
:102FB00000000000000080FFFFFF00000000000094
:102FC0000000000000000000000000000000008081
:102FD000FFFFFF00000000000000000000000000F4
:102FE000000000000000000080FFFFFF0000000064
:102FF00000000000000000000000000000000000D1
:103000000080FFFFFF000000000000000000000043
:103010000000000000000000000080FFFFFF000033
:1030200000000000000000000000000000000000A0
:1030300000000080FFFFFF00000000000000000013
:1030400000000000000000000000000080FFFFFF03
:103050000000000000000000000000000000000070
:10306000000000000080FFFFFF00000000000000E3
:1030700000000000000000408888888838000000B8
:10308000B0FFFFFFFF1E000000E0FFFFFFFF090091
:103090000000F4FFFFFFFF03000000F8FFFFFFBF89
:1030A00000000000FCFFFFFF5F00000010FFFFFFBB
:1030B000FF0D00000050FFFFFFFF0700000090FF22
:1030C000FFFFEF01000000D0FFFFFF9F00000000A6
:1030D000F2FFFFFF2F00000000F6FFFFFF0B0000D4
:1030E0000000FAFFFFFF0400000000FEFFFFDF000A
:1030F00000000030FFFFFF6F0000000070FFFFFFC7
:103100001E00000000B0FFFFFF0800000000E0FF0D
:10311000FFFF0200000000F4FFFFAF00000000000E
:10312000F8FFFF4F0000000000FCFFFF0C00000054
:103130000010FFFFFF060000000050FFFFEF01003E
:1031400000000090FFFF8F0000000000D0FFFF2F65
:103150000000000000F2FFFF0A0000000000111153
:103160001111111111111111111100FFFFFFFFFFBA
:10317000FFFFFFFFFFFFFF05FFFFFFFFFFFFFFFF59
:10318000FFFFFFFF05FFFFFFFFFFFFFFFFFFFFFF49
:10319000FF05FFFFFFFFFFFFFFFFFFFFFFFF05FF33
:1031A000FFFFFFFFFFFFFFFFFFFFFF05FFFFFFFF29
:1031B000FFFFFFFFFFFFFFFF05FFFFFFFFFFFFFF19
:1031C000FFFFFFFFFF05303333333301F2FFFFFF13
:1031D000FF03F2FFFFFFFF03F2FFFFFFFF03F2FF1A
:1031E000FFFFFF03F2FFFFFFFF03F2FFFFFFFF03FD
:1031F000F2FFFFFFFF03F2FFFFFFFF03F2FFFFFFFE
:10320000FF03F2FFFFFFFF03F2FFFFFFFF030000DA
:10321000000000000000000000000000F7FFFF6F4A
:103220000000000000000000000000000000FDFFA2
:10323000FF1E000000000000000000000000004031
:10324000FFFFFF0A00000000000000000000000077
:103250000090FFFFFF0400000000000000000000DD
:10326000000000E1FFFFDF000000000000000000A0
:103270000000000000F6FFFF7F00000000000000DB
:1032800000000000000000FCFFFF2F000000000015
:10329000000000000000000020FFFFFF0B00000006
:1032A0000000000000000000000080FFFFFF05009C
:1032B000000000000000000000000000D0FFFFEF51
:1032C0000000000000000000000000000000F4FF0B
:1032D000FF8F000000000000000000000000000060
:1032E000FAFFFF3F000000000000000000000000A7
:1032F0000010FFFFFF0C00000000000000000000B5
:1033000000000070FFFFFF0600000000000000004A
:103310000000000000C0FFFFFF01000000000000EF
:1033200000000000000000F3FFFFAF0000000000FD
:10333000000000000000000000F9FFFF4F00000047
:103340000000000000000000000000FEFFFF0D0074
:1033500000000000000000000000000050FFFFFF20
:103360000700000000000000000000000000B0FFA7
:10337000FFFF02000000000000000000000000004D
:10338000F2FFFFBF0000000000000000000000008E
:103390000000F7FFFF5F00000000000000000000D9
:1033A00000000000FDFFFF0E000000000000000014
:1033B000000000000040FFFFFF09000000000000C7
:1033C00000000000000000A0FFFFFF03000000005D
:1033D000000000000000000000E1FFFFCF0000003F
:1033E0000000000000000000000000F6FFFF6F007A
:1033F00000000000000000000000000000FCFFFFD3
:103400001F0000000000000000000000000030FF6E
:10341000FFFF0A00000000000000000000000000A4
:1034200080FFFFFF0400000000000000000000001B
:103430000000E0FFFFDF00000000000000000000CF
:1034400000000000F5FFFF8F0000000000000000FA
:10345000000000000000FBFFFF2F00000000000044
:103460000000000000000010FFFFFF0B0000000044
:1034700000000000000000000070FFFFFF050000DA
:103480000000000000000000000000D0FFFFEF017E
:1034900000000000000000000000000000F3FFFF3B
:1034A0009F0000000000000000000000000000F984
:1034B000FFFF3F00000000000000000000000000CF
:1034C00010FEFFFF0C0000000000000000000000E4
:1034D000000060FFFFFF0700000000000000000088
:1034E00000000000B0FFFFFF01000000000000002E
:1034F000000000000000F2FFFFAF0000000000002D
:103500000000000000000000F8FFFF4F0000000076
:1035100000000000000000000000FDFFFF0D0000A3
:10352000000000000000000000000040FFFFFF0856
:1035300000000000000000000000000000A0FFFFED
:10354000FF0200000000000000000000000000F189
:10355000FFFFBF00000000000000000000000000AE
:1035600000F6FFFF6F0000000000000000000000F8
:10357000000000FCFFFF1E00000000000000000033
:103580000000000030FFFFFF090000000000000005
:1035900000000000000090FFFFFF0300000000009B
:1035A0000000000000000000E0FFFFDF000000005E
:1035B00000000000000000000000F5FFFF7F000099
:1035C000000000000000000000000000FBFFFF1FE3
:1035D0000000000000000000000000000020FFFFCD
:1035E000FF0A000000000000000000000000007062
:1035F000FFFFFF05000000000000000000000000C9
:1036000000D0FFFFEF0000000000000000000000FD
:10361000000000F4FFFF8F00000000000000000029
:103620000000000000FAFFFF2F0000000000000073
:1036300000000000000010FEFFFF0C000000000072
:10364000000000000000000060FFFFFF0600000017
:1036500000000000000000000000C0FFFFEF0100BC
:10366000000000000000000000000000F2FFFF9FCB
:103670000000000000000000000000000000F8FF53
:10368000FF4F0000000000000000000000000000EC
:10369000FEFFFF0D00000000000000000000000021
:1036A0000050FFFFFF0700000000000000000000C6
:1036B000000000A0FFFFFF0100000000000000006C
:1036C0000000000000F1FFFFBF000000000000004C
:1036D00000000000000000F7FFFF5F000000000096
:1036E000000000000000000000FDFFFF0E000000D1
:1036F0000000000000000000000030FFFFFF080095
:1037000000000000000000000000000090FFFFFF2C
:103710000300000000000000000000000000E1FFC6
:10372000FFCF0000000000000000000000000000CB
:103730000000000000000073CAEEEFCE7A03000024
:103740000000000000000000000020E8FFFFFFFF75
:10375000FFFFEF280000000000000000000010F84C
:10376000FFFFFFFFFFFFFFFFFF180000000000004A
:10377000000000D3FFFFFFFFFFFFFFFFFFFFDF039E
:103780000000000000000040FFFFFFFFFFFFFFFF01
:10379000FFFFFFFF4E00000000000000F4FFFFFFEE
:1037A000FFFFFFFFFFFFFFFFFFEF03000000000030
:1037B00020FEFFFFFFFFCF8987C9FFFFFFFFFF1D2F
:1037C0000000000000B0FFFFFFFF7E01000000715D
:1037D000FEFFFFFFAF0000000000F5FFFFFFAF019D
:1037E0000000000000B1FFFFFFFF0400000000FD2B
:1037F000FFFFFF0A00000000000000FBFFFFFF0CBE
:1038000000000060FFFFFFCF00000000000000008C
:10381000D1FFFFFF4F000000C0FFFFFF3F0000008F
:10382000000000000040FFFFFFBF000000F2FFFFAC
:10383000FF0A000000000000000000FCFFFFFF0185
:103840000000F8FFFFFF040000000000000000007F
:10385000F5FFFFFF060000FCFFFFEF000000000087
:103860000000000000E0FFFFFF0B0010FFFFFF9FC4
:1038700000000000000000000000A0FFFFFF0E009D
:1038800050FFFFFF6F00000000000000000000700C
:10389000FFFFFF4F0080FFFFFF3F00000000000020
:1038A0000000000030FFFFFF7F00A0FFFFFF0F00C0
:1038B00000000000000000000010FFFFFFAF00D07C
:1038C000FFFFFF0D0000000000000000000000FEF0
:1038D000FFFFCF00F0FFFFFF0B0000000000000023
:1038E00000000000FCFFFFEF00F2FFFFFF0A0000F6
:1038F000000000000000000000FBFFFFFF01F4FFDC
:10390000FFFF090000000000000000000000F9FFB8
:10391000FFFF03F5FFFFFF080000000000000000AC
:10392000000000F8FFFFFF04F6FFFFFF07000000A4
:103930000000000000000000F7FFFFFF05F7FFFF99
:10394000FF060000000000000000000000F7FFFF7D
:10395000FF06F8FFFFFF0600000000000000000067
:103960000000F6FFFFFF07F9FFFFFF050000000062
:1039700000000000000000F6FFFFFF08F9FFFFFF56
:10398000050000000000000000000000F6FFFFFF3F
:1039900008F9FFFFFF050000000000000000000024
:1039A00000F5FFFFFF09FAFFFFFF04000000000021
:1039B000000000000000F5FFFFFF09F9FFFFFF0412
:1039C0000000000000000000000000F5FFFFFF09FC
:1039D000F9FFFFFF040000000000000000000000ED
:1039E000F6FFFFFF08F9FFFFFF05000000000000E1
:1039F0000000000000F6FFFFFF08F8FFFFFF0500D2
:103A000000000000000000000000F6FFFFFF07F7C5
:103A1000FFFFFF050000000000000000000000F7AD
:103A2000FFFFFF07F6FFFFFF060000000000000099
:103A300000000000F7FFFFFF06F5FFFFFF07000093
:103A4000000000000000000000F8FFFFFF05F4FF89
:103A5000FFFF080000000000000000000000F9FF68
:103A6000FFFF03F2FFFFFF0900000000000000005D
:103A7000000000FBFFFFFF01F0FFFFFF0A00000056
:103A80000000000000000000FCFFFFFF00D0FFFF6F
:103A9000FF0C0000000000000000000000FEFFFF1F
:103AA000CF00B0FFFFFF0F0000000000000000008B
:103AB0000010FFFFFFAF0080FFFFFF3F000000008E
:103AC00000000000000040FFFFFF7F0050FFFFFFED
:103AD0005F0000000000000000000070FFFFFF4FCB
:103AE0000010FFFFFFAF000000000000000000001A
:103AF000B0FFFFFF1F0000FCFFFFEF000000000011
:103B00000000000000F1FFFFFF0C0000F8FFFFFFC6
:103B100005000000000000000000F6FFFFFF0700A6
:103B200000F3FFFFFF0A000000000000000000FC9F
:103B3000FFFFFF020000C0FFFFFF3F00000000008A
:103B400000000040FFFFFFCF00000060FFFFFFCF3D
:103B50000000000000000000D1FFFFFF5F00000038
:103B600010FEFFFFFF0900000000000000FAFFFF49
:103B7000FF0D00000000F6FFFFFFAF010000000096
:103B800000B1FFFFFFFF0500000000C0FFFFFFFFC7
:103B90006D0100000071FEFFFFFFBF00000000008C
:103BA00020FEFFFFFFFFCF8987C9FFFFFFFFFF2E2A
:103BB000000000000000F5FFFFFFFFFFFFFFFFFF19
:103BC000FFFFFFFF0400000000000050FFFFFFFFA9
:103BD000FFFFFFFFFFFFFFFF4E000000000000009F
:103BE00000E4FFFFFFFFFFFFFFFFFFFFDF03000019
:103BF00000000000000010F9FFFFFFFFFFFFFFFFC4
:103C0000FF180000000000000000000020E9FFFF96
:103C1000FFFFFFFFEF280000000000000000000091
:103C200000000084CAEEEFCE7A030000000000001E
:103C300000000000000000008588880400000000EB
:103C4000000000000000000000FAFFFF0700000075
:103C500000000000000000000000FDFFFF07000062
:103C60000000000000000000000030FFFFFF070020
:103C70000000000000000000000000B0FFFFFF0790
:103C8000000000000000000000000000F9FFFFFF3E
:103C9000070000000000000000000000B1FFFFFF6F
:103CA000FF070000000000000000000083FEFFFF8F
:103CB000FFFF070000000000005176A8ECFFFFFFA7
:103CC000FFFFFF07000000000000F2FFFFFFFFFF03
:103CD000FFFFFFFF07000000000000F2FFFFFFFFF3
:103CE000FFFFFFFFFF07000000000000F2FFFFFFE3
:103CF000FFFFFFFFFFFF07000000000000F2FFFFD3
:103D0000FFFFFFFFFFFFFF07000000000000F2FFC2
:103D1000FFFFFFFFFFFFFFFF0700000000000000A4
:103D20000000000000F0FFFFFF070000000000009F
:103D3000000000000000F0FFFFFF0700000000008F
:103D400000000000000000F0FFFFFF07000000007F
:103D50000000000000000000F0FFFFFF070000006F
:103D6000000000000000000000F0FFFFFF0700005F
:103D700000000000000000000000F0FFFFFF07004F
:103D80000000000000000000000000F0FFFFFF073F
:103D9000000000000000000000000000F0FFFFFF36
:103DA00007000000000000000000000000F0FFFF1E
:103DB000FF07000000000000000000000000F0FF0E
:103DC000FFFF07000000000000000000000000F0FE
:103DD000FFFFFF07000000000000000000000000DF
:103DE000F0FFFFFF070000000000000000000000DF
:103DF00000F0FFFFFF0700000000000000000000CF
:103E00000000F0FFFFFF07000000000000000000BE
:103E1000000000F0FFFFFF070000000000000000AE
:103E200000000000F0FFFFFF07000000000000009E
:103E30000000000000F0FFFFFF070000000000008E
:103E4000000000000000F0FFFFFF0700000000007E
:103E500000000000000000F0FFFFFF07000000006E
:103E60000000000000000000F0FFFFFF070000005E
:103E7000000000000000000000F0FFFFFF0700004E
:103E800000000000000000000000F0FFFFFF07003E
:103E90000000000000000000000000F0FFFFFF072E
:103EA000000000000000000000000000F0FFFFFF25
:103EB00007000000000000000000000000F0FFFF0D
:103EC000FF07000000000000000000000000F0FFFD
:103ED000FFFF07000000000000000000000000F0ED
:103EE000FFFFFF07000000000000000000000000CE
:103EF000F0FFFFFF070000000000000000000000CE
:103F000000F0FFFFFF0700000000000000000000BD
:103F10000000F0FFFFFF07000000000000000000AD
:103F2000000000F0FFFFFF0700000000000000009D
:103F300000000000F0FFFFFF07000000000000008D
:103F40000000000000F0FFFFFF070000000000007D
:103F5000000000000000F0FFFFFF0700000000006D
:103F600000000000000000F0FFFFFF07000000005D
:103F70000000000000000000F0FFFFFF070000004D
:103F8000000000000000000000F0FFFFFF0700003D
:103F900000000000000000000000F0FFFFFF07002D
:103FA0000000000000000000000000F0FFFFFF071D
:103FB000000000000000E2EEEEEEEEEEFEFFFFFF7E
:103FC000EFEEEEEEEEEE05F2FFFFFFFFFFFFFFFF6D
:103FD000FFFFFFFFFFFFFF05F2FFFFFFFFFFFFFFF8
:103FE000FFFFFFFFFFFFFFFF05F2FFFFFFFFFFFFE8
:103FF000FFFFFFFFFFFFFFFFFF05F2FFFFFFFFFFD8
:10400000FFFFFFFFFFFFFFFFFFFF05F2FFFFFFFFC7
:10401000FFFFFFFFFFFFFFFFFFFFFF0500000000A6
:10402000002075A9BBBC9A570200000000000000E8
:1040300000000030B7FEFFFFFFFFFFFFDF3800008A
:1040400000000000000094FEFFFFFFFFFFFFFFFFE6
:10405000FFFF4B000000000010D7FFFFFFFFFFFF36
:10406000FFFFFFFFFFFFFF190000000040FFFFFF01
:10407000FFFFFFFFFFFFFFFFFFFFFFDF020000006A
:1040800040FFFFFFFFFFFFFFFFFFFFFFFFFFFFFFFF
:104090003E00000040FFFFFFFFFFFFFFFFFFFFFFAD
:1040A000FFFFFFFFDF01000040FFFFFFFFEF7A246B
:1040B000012163E9FFFFFFFFFF0B000040FFFFFF4F
:1040C0008D03000000000010E6FFFFFFFF5F00000F
:1040D00040FFFF4A000000000000000020FCFFFF3E
:1040E000FFCF000040FF3B00000000000000000088
:1040F00000C1FFFFFFFF0300404D00000000000073
:10410000000000000030FFFFFFFF0800000000007B
:1041100000000000000000000000F9FFFFFF0C009D
:104120000000000000000000000000000000F4FF9C
:10413000FFFF0F0000000000000000000000000072
:104140000000F0FFFFFF2F00000000000000000053
:10415000000000000000D0FFFFFF2F000000000063
:1041600000000000000000000000C0FFFFFF3F0053
:104170000000000000000000000000000000C0FF80
:10418000FFFF2F0000000000000000000000000002
:104190000000D0FFFFFF1F00000000000000000033
:1041A000000000000000F0FFFFFF0F000000000013
:1041B00000000000000000000000F4FFFFFF0C0002
:1041C0000000000000000000000000000000F7FFF9
:1041D000FFFF0900000000000000000000000000D8
:1041E0000000FCFFFFFF05000000000000000000D1
:1041F000000000000030FFFFFFFF01000000000092
:10420000000000000000000000B0FFFFFFAF000052
:1042100000000000000000000000000000F4FFFFAC
:10422000FF4F000000000000000000000000000040
:1042300000FDFFFFFF0B0000000000000000000079
:104240000000000090FFFFFFFF03000000000000DF
:104250000000000000000000F5FFFFFF9F000000CD
:10426000000000000000000000000030FEFFFFFF23
:104270001D0000000000000000000000000000D24F
:10428000FFFFFFFF0300000000000000000000002F
:10429000000010FCFFFFFF6F0000000000000000A6
:1042A000000000000000B0FFFFFFFF090000000059
:1042B00000000000000000000000FAFFFFFFBF0048
:1042C00000000000000000000000000000A0FFFF50
:1042D000FFFF1C00000000000000000000000000C4
:1042E00000FAFFFFFFCF0100000000000000000007
:1042F0000000000090FFFFFFFF1D00000000000015
:104300000000000000000000FAFFFFFFDF010000D6
:104310000000000000000000000000A0FFFFFFFF01
:104320001C0000000000000000000000000010FB66
:10433000FFFFFFCF010000000000000000000000B0
:104340000000B1FFFFFFFF1C0000000000000000A4
:10435000000000000010FCFFFFFFBF010000000094
:10436000000000000000000000D2FFFFFFFF0A0075
:1043700000000000000000000000000030FEFFFF11
:10438000FF9F00000000000000000000000000008F
:10439000E4FFFFFFFF070000000000000000000036
:1043A00000000060FFFFFFFF6F0000000000000042
:1043B00000000000000000F8FFFFFFEF0400000015
:1043C00000000000000000000000A1FFFFFFFF3E12
:1043D0000000000000000000000000000010FCFFD2
:1043E000FFFFCF02000000000000000000000000FE
:1043F00000D2FFFFFFFF1B000000000000000000D4
:104400000000000040FEFFFFFF9F000000000000D2
:104410000000000000000000F5FFFFFFFF070000A4
:10442000000000000000000000000000FBFFFFFF94
:104430005F0000000000000000000000000000001D
:10444000FBFFFFFFBDBBBBBBBBBBBBBBBBBBBBBBAE
:10445000BBBBBB7BFBFFFFFFFFFFFFFFFFFFFFFFC0
:10446000FFFFFFFFFFFFFFAFFBFFFFFFFFFFFFFFB0
:10447000FFFFFFFFFFFFFFFFFFFFFFAFFBFFFFFFA0
:10448000FFFFFFFFFFFFFFFFFFFFFFFFFFFFFFAF8C
:10449000FBFFFFFFFFFFFFFFFFFFFFFFFFFFFFFF30
:1044A000FFFFFFAFFBFFFFFFFFFFFFFFFFFFFFFF70
:1044B000FFFFFFFFFFFFFFAFFBFFFFFFFFFFFFFF60
:1044C000FFFFFFFFFFFFFFFFFFFFFFAF0000000048
:1044D00000106398BBBCAB79250000000000000011
:1044E0000000001095FCFFFFFFFFFFFFFF8D0300A2
:1044F00000000000000061FBFFFFFFFFFFFFFFFF68
:10450000FFFFCF040000000000A3FFFFFFFFFFFF3D
:10451000FFFFFFFFFFFFFFBF0200000000FCFFFFE7
:10452000FFFFFFFFFFFFFFFFFFFFFFFF4E00000049
:1045300000FCFFFFFFFFFFFFFFFFFFFFFFFFFFFF8D
:10454000FF04000000FCFFFFFFFFFFFFFFFFFFFF76
:10455000FFFFFFFFFF3E000000FCFFFFFFFF8C3569
:1045600011103196FEFFFFFFFFCF000000FCFFFFA0
:10457000AF1500000000000060FDFFFFFFFF060018
:1045800000FCFF7E010000000000000000B1FFFF02
:10459000FFFF0C0000FC7E00000000000000000097
:1045A0000010FDFFFFFF2F00009C01000000000035
:1045B000000000000000F3FFFFFF5F0000010000AB
:1045C00000000000000000000000C0FFFFFF8F009F
:1045D000000000000000000000000000000070FF6C
:1045E000FFFF9F000000000000000000000000002E
:1045F000000060FFFFFF9F000000000000000000BF
:1046000000000000000050FFFFFF8F0000000000CE
:104610000000000000000000000060FFFFFF7F00BE
:10462000000000000000000000000000000080FF0B
:10463000FFFF3F000000000000000000000000003D
:104640000000D0FFFFFF0E0000000000000000008F
:10465000000000000000F4FFFFFF07000000000062
:1046600000000000000000000010FDFFFFEF01004F
:1046700000000000000000000000000000A0FFFF9C
:10468000FF5F0000000000000000000000000000CC
:1046900020FCFFFFFF0800000000000000000000F9
:1046A00000000020F8FFFFFF8F0000000000000066
:1046B00000000000103185FCFFFFFFFF0700000035
:1046C00000000000000000FFFFFFFFFFFFFFFF3CB6
:1046D0000000000000000000000000FFFFFFFFFFDF
:1046E000FFFF5C000000000000000000000000FF71
:1046F000FFFFFFFFFF1700000000000000000000A8
:10470000000000FFFFFFFFFFFFAE160000000000EB
:1047100000000000000000FFFFFFFFFFFFFFEF2A87
:104720000000000000000000000000FFFFFFFFFF8E
:10473000FFFFFFFF1A0000000000000000000088DB
:104740008898CAFEFFFFFFFFDF04000000000000A2
:104750000000000000000020B6FFFFFFFF3E000049
:1047600000000000000000000000000000D4FFFF77
:10477000FFEF020000000000000000000000000049
:104780000010FCFFFFFF0B00000000000000000015
:10479000000000000000E1FFFFFF5F0000000000DC
:1047A0000000000000000000000050FFFFFFCF00ED
:1047B000000000000000000000000000000000FDFC
:1047C000FFFFFF03000000000000000000000000E9
:1047D000000000F8FFFFFF060000000000000000DE
:1047E00000000000000000F5FFFFFF0900000000CE
:1047F0000000000000000000000000F3FFFFFF0BBE
:10480000000000000000000000000000000000F2B6
:10481000FFFFFF0C0000000000000000000000008F
:10482000000000F2FFFFFF0C00000000000000008D
:1048300000000000000000F3FFFFFF0C000000007C
:104840000000000000000000000000F5FFFFFF0B6B
:10485000000000000000000000000000000000F761
:10486000FFFFFF0900000000000000000000000042
:10487000000000FBFFFFFF07000000000000000039
:1048800000000000000030FFFFFFFF0300000000F9
:1048900000000000000000000000B0FFFFFFDF008C
:1048A0009601000000000000000000000000F6FF7C
:1048B000FFFF8F00F77E01000000000000000000F5
:1048C0000040FFFFFFFF2F00F7FF8E0200000000F7
:1048D0000000000000E5FFFFFFFF0900F7FFFFBF3A
:1048E0001600000000000000B3FFFFFFFFEF010013
:1048F000F7FFFFFFFF8C2500000041C8FFFFFFFF0F
:10490000FF4F0000F7FFFFFFFFFFFFDFCCEDFFFFD2
:10491000FFFFFFFFFF060000F7FFFFFFFFFFFFFFA6
:10492000FFFFFFFFFFFFFFFF7F000000F7FFFFFF1C
:10493000FFFFFFFFFFFFFFFFFFFFFFFF050000007E
:10494000B3FFFFFFFFFFFFFFFFFFFFFFFFFFFF2C96
:10495000000000000072FCFFFFFFFFFFFFFFFFFFF2
:10496000FFFF6D0000000000000020A6FEFFFFFF1B
:10497000FFFFFFFFEF4A0000000000000000000002
:104980002075BAEDFFEFCD7A0400000000000000B2
:10499000000000000000000000000000000055556D
:1049A000552500000000000000000000000000008D
:1049B00000000090FFFFFF5F00000000000000000B
:1049C000000000000000000000F7FFFFFF5F000094
:1049D000000000000000000000000000000050FF88
:1049E000FFFFFF5F0000000000000000000000006B
:1049F00000000000E3FFFFFFFF5F00000000000079
:104A000000000000000000000020FEFFFFFFFF5F2D
:104A1000000000000000000000000000000000C1D5
:104A2000FFFFFFFFFF5F000000000000000000002C
:104A30000000000000FBFFFFFFFFFF5F0000000021
:104A40000000000000000000000090FFFFFFFFFFDB
:104A5000FF5F0000000000000000000000000000F8
:104A6000F7FFFFFFFFFFFF5F0000000000000000F6
:104A7000000000000050FFFFFF7FFFFFFF5F00000E
:104A80000000000000000000000000F3FFFFFF270F
:104A9000FFFFFF5F000000000000000000000000BA
:104AA00020FEFFFF9F20FFFFFF5F000000000000CF
:104AB000000000000000D1FFFFFF0B20FFFFFF5FA1
:104AC000000000000000000000000000FBFFFFCF1E
:104AD0000120FFFFFF5F0000000000000000000059
:104AE00000A0FFFFFF2E0020FFFFFF5F000000007F
:104AF00000000000000000F8FFFFEF030020FFFFB0
:104B0000FF5F0000000000000000000060FFFFFFEA
:104B10005F000020FFFFFF5F0000000000000000BA
:104B20000000F4FFFFFF06000020FFFFFF5F000012
:104B30000000000000000020FEFFFF8F00000020AA
:104B4000FFFFFF5F000000000000000000D1FFFF3A
:104B5000FF0A00000020FFFFFF5F000000000000D0
:104B6000000010FCFFFFCF0100000020FFFFFF5FEF
:104B70000000000000000000A0FFFFFF1D0000007B
:104B80000020FFFFFF5F0000000000000000F8FFB2
:104B9000FFEF030000000020FFFFFF5F00000000A8
:104BA00000000060FFFFFF4F000000000020FFFF3B
:104BB000FF5F00000000000000F4FFFFFF060000A0
:104BC00000000020FFFFFF5F00000000000030FE3B
:104BD000FFFF8F00000000000020FFFFFF5F0000CC
:104BE00000000000D2FFFFFF0A00000000000020CC
:104BF000FFFFFF5F000000000010FCFFFFCF000080
:104C0000000000000020FFFFFF5F0000000000B078
:104C1000FFFFFF1D0000000000000020FFFFFF5FFE
:104C20000000000000F9FFFFEF020000000000009C
:104C30000020FFFFFF5F0000000070FFFFFF4F003C
:104C40000000000000000020FFFFFF5F00000000E8
:104C5000F5FFFFFF05000000000000000020FFFF3F
:104C6000FF5F00000000FEFFFF7F0000000000006B
:104C700000000020FFFFFF5F00000000FFFFFF09B2
:104C800000000000000000000020FFFFFF5F0000A8
:104C90000000FFFFBF000000000000000000002037
:104CA000FFFFFF5F00000000FFFFFFFFFFFFFFFFB0
:104CB000FFFFFFFFFFFFFFFFFFFFFFFFFFFFFFFF04
:104CC000FFFFFFFFFFFFFFFFFFFFFFFFFFFFFFFFF4
:104CD000FFFFFFFFFFFFFFFFFFFFFFFFFFFFFFFFE4
:104CE000FFFFFFFFFFFFFFFFFFFFFFFFFFFFFFFFD4
:104CF000FFFFFFFFFFFFFFFFFFFFFFFFFFFFFFFFC4
:104D0000FFFFFFFFFFFFFFFFFFFFFFFFFFFFFFFFB3
:104D1000FFFFFFFFFFFFFFFFFFFFFFFFFFFFFFFFA3
:104D2000FFFFFFFFFFFFFFFFFFFFFFFF444444447F
:104D300044444444444444444464FFFFFF8F444497
:104D400044440000000000000000000000000020BB
:104D5000FFFFFF5F000000000000000000000000F7
:104D6000000000000020FFFFFF5F000000000000C7
:104D7000000000000000000000000020FFFFFF5FB7
:104D80000000000000000000000000000000000023
:104D90000020FFFFFF5F0000000000000000000097
:104DA0000000000000000020FFFFFF5F0000000087
:104DB0000000000000000000000000000020FFFFD5
:104DC000FF5F000000000000000000000000000085
:104DD00000000020FFFFFF5F000000000000000057
:104DE00000000000000000000020FFFFFF5F000047
:104DF0000000000000000000000000000000002093
:104E0000FFFFFF5F00000000000000000000000046
:104E1000000000000020FFFFFF5F00000000000016
:104E2000000000000000000000000020FFFFFF5F06
:104E30000000000000000000000000000000000072
:104E40000020FFFFFF5F00000000000000000000E6
:104E50000000000000000020FFFFFF5F00000000D6
:104E60000000000000000000000000000020FFFF24
:104E7000FF5F0000000000000000000000000000D4
:104E800000000020FFFFFF5F0000000000000000A6
:104E900000000000000000000020FFFFFF5F000096
:104EA000000000D2DDDDDDDDDDDDDDDDDDDDDDDDD4
:104EB000DDDDDDDDAD0000F3FFFFFFFFFFFFFFFFE6
:104EC000FFFFFFFFFFFFFFFFCF0000F3FFFFFFFF2C
:104ED000FFFFFFFFFFFFFFFFFFFFFFFFCF0000F31C
:104EE000FFFFFFFFFFFFFFFFFFFFFFFFFFFFFFFFD2
:104EF000CF0000F3FFFFFFFFFFFFFFFFFFFFFFFFFC
:104F0000FFFFFFFFCF0000F3FFFFFFFFFFFFFFFFEB
:104F1000FFFFFFFFFFFFFFFFCF0000F3FFFFFFFFDB
:104F2000FFFFFFFFFFFFFFFFFFFFFFFFCF0000F3CB
:104F3000FFFFFF050000000000000000000000006F
:104F4000000000F3FFFFFF0500000000000000006C
:104F500000000000000000F3FFFFFF05000000005C
:104F60000000000000000000000000F3FFFFFF054C
:104F7000000000000000000000000000000000F33E
:104F8000FFFFFF050000000000000000000000001F
:104F9000000000F3FFFFFF0500000000000000001C
:104FA00000000000000000F3FFFFFF05000000000C
:104FB0000000000000000000000000F3FFFFFF05FC
:104FC000000000000000000000000000000000F3EE
:104FD000FFFFFF05000000000000000000000000CF
:104FE000000000F3FFFFFF050000000000000000CC
:104FF00000000000000000F3FFFFFF0500000000BC
:105000000000000000000000000000F3FFFFFF05AB
:10501000000000000000000000000000000000F39D
:10502000FFFFFF050000000000000000000000007E
:10503000000000F3FFFFFF0500000000000000007B
:1050400000000000000000F3FFFFFF05000000006B
:105050000000000000000000000000F3FFFFFF5808
:10506000768877674502000000000000000000F32A
:10507000FFFFFFFFFFFFFFFFFFFF9C050000000099
:10508000000000F3FFFFFFFFFFFFFFFFFFFFFFEF49
:1050900029000000000000F3FFFFFFFFFFFFFFFFFC
:1050A000FFFFFFFFFF180000000000F3FFFFFFFFFE
:1050B000FFFFFFFFFFFFFFFFFFDF0300000000F324
:1050C000FFFFFFFFFFFFFFFFFFFFFFFFFFFF5F008F
:1050D000000000F3FFFFFFFFFFFFFFFFFFFFFFFFE9
:1050E000FFFFFF05000000F3EF9C57241100215340
:1050F000A7FEFFFFFFFFFF2E00000041020000009F
:10510000000000000040FAFFFFFFFFCF000000009A
:105110000000000000000000000030FCFFFFFFFF67
:10512000050000000000000000000000000000B1C9
:10513000FFFFFFFF0C000000000000000000000067
:1051400000000000FCFFFFFF3F0000000000000027
:105150000000000000000000F2FFFFFF7F000000E1
:1051600000000000000000000000000090FFFFFFB2
:10517000BF00000000000000000000000000000070
:1051800030FFFFFFEF000000000000000000000003
:105190000000000000FFFFFFFF0100000000000012
:1051A000000000000000000000FDFFFFFF02000003
:1051B00000000000000000000000000000FCFFFFF5
:1051C000FF030000000000000000000000000000DD
:1051D00000FBFFFFFF0300000000000000000000D4
:1051E0000000000000FDFFFFFF02000000000000C3
:1051F000000000000000000000FEFFFFFF010000B3
:1052000000000000000000000000000010FFFFFF91
:10521000EF0000000000000000000000000000009F
:1052200050FFFFFFBF000000000000000000000072
:105230000000000090FFFFFF8F0000000000000052
:105240000000000000000000E1FFFFFF4F00000031
:10525000000000000000000000000000F8FFFFFF59
:105260000D0057000000000000000000000000409A
:10527000FFFFFFFF0800FA3B0000000000000000F5
:10528000000000E2FFFFFFFF0100FAFF5B000000EB
:1052900000000000000040FEFFFFFF8F0000FAFF4B
:1052A000FF8D0300000000000020F9FFFFFFFF1D3D
:1052B0000000FAFFFFFFDF690300000063FAFFFF51
:1052C000FFFFFF030000FAFFFFFFFFFFFFDECCFE42
:1052D000FFFFFFFFFFFF6F000000FAFFFFFFFFFF70
:1052E000FFFFFFFFFFFFFFFFFFFF07000000FAFFC8
:1052F000FFFFFFFFFFFFFFFFFFFFFFFFFF5E00005D
:105300000000F8FFFFFFFFFFFFFFFFFFFFFFFFFFB2
:10531000CF020000000020C7FFFFFFFFFFFFFFFFDD
:10532000FFFFFFDF050000000000000062EAFFFF52
:10533000FFFFFFFFFFFFAE040000000000000000C1
:1053400000004297CBEDFFDEAC47010000000000FB
:10535000000000000000000000000000005397AAB9
:10536000BBAB68030000000000000000000000006C
:1053700072EBFFFFFFFFFFFFCF0000000000000007
:1053800000000000B6FFFFFFFFFFFFFFFFDF000090
:105390000000000000000000D5FFFFFFFFFFFFFF3F
:1053A000FFFFDF000000000000000000C3FFFFFF60
:1053B000FFFFFFFFFFFFFFDF000000000000000015
:1053C00070FFFFFFFFFFFFFFFFFFFFFFDF00000099
:1053D0000000000000F9FFFFFFFFFFFFFFFFFFFFDE
:1053E000FFDF00000000000000B0FFFFFFFFFFDF55
:1053F0006923012164EADF00000000000000FAFFD9
:10540000FFFFFF9F03000000000000840000000079
:10541000000080FFFFFFFFAF02000000000000005F
:1054200000000000000000F4FFFFFFEF0500000097
:10543000000000000000000000000010FDFFFFFF62
:105440003E0000000000000000000000000000001E
:1054500090FFFFFFEF0300000000000000000000CD
:105460000000000000F3FFFFFF4F000000000000FD
:1054700000000000000000000000FBFFFFFF08002C
:10548000000000000000000000000000000030FFED
:10549000FFFFDF000000000000000000000000002F
:1054A00000000090FFFFFF4F000000000000000020
:1054B0000000000000000000F1FFFFFF0C000000F2
:1054C00000000000000000000000000000F6FFFFE8
:1054D000FF050000000000000000000000000000C8
:1054E0000000FBFFFFEF00000000000000000000D4
:1054F00000000000000010FFFFFF9F000000000000
:10550000000000000000000000000040FFFFFF5FFF
:10551000000000000000000000000000000000008B
:1055200070FFFFFF1F000000004366664502000099
:105530000000000000B0FFFFFF0D000083FCFFFF34
:10554000FFFFEF8C030000000000D0FFFFFF0B10F7
:10555000C7FFFFFFFFFFFFFFFFCF0400000000F0C9
:10556000FFFFFF19E7FFFFFFFFFFFFFFFFFFFFAF99
:1055700002000000F3FFFFFFDBFFFFFFFFFFFFFF65
:10558000FFFFFFFFFF4E000000F4FFFFFFFFFFFFE4
:10559000FFFFFFFFFFFFFFFFFFFFFF060000F6FF1B
:1055A000FFFFFFFFFFFFFFFFFFFFFFFFFFFFFFFF0B
:1055B0006F0000F7FFFFFFFFFFFF8B3512103185F3
:1055C000FCFFFFFFFFFF0300F8FFFFFFFFBF160018
:1055D000000000000030FCFFFFFFFF0D00F9FFFF9F
:1055E000FFAF03000000000000000070FFFFFFFF9E
:1055F0007F00F9FFFFFF0600000000000000000030
:1056000000F5FFFFFFEF00F9FFFFFF0500000000BE
:1056100000000000000070FFFFFFFF05F9FFFFFF23
:10562000040000000000000000000000FDFFFFFF7C
:105630000AF9FFFFFF040000000000000000000066
:1056400000F5FFFFFF0EF9FFFFFF04000000000060
:10565000000000000000F1FFFFFF2FF8FFFFFF0434
:105660000000000000000000000000C0FFFFFF4F2E
:10567000F7FFFFFF05000000000000000000000031
:1056800090FFFFFF6FF5FFFFFF0600000000000026
:10569000000000000070FFFFFF7FF4FFFFFF070026
:1056A0000000000000000000000070FFFFFF8FF20C
:1056B000FFFFFF0900000000000000000000006084
:1056C000FFFFFF8FE0FFFFFF0B0000000000000066
:1056D0000000000070FFFFFF7FB0FFFFFF0E000023
:1056E00000000000000000000080FFFFFF6F80FF4F
:1056F000FFFF3F0000000000000000000000A0FFCE
:10570000FFFF4F40FFFFFF7F000000000000000090
:10571000000000D0FFFFFF1F00FEFFFFDF000000C2
:105720000000000000000000F2FFFFFF0D00FAFF84
:10573000FFFF0500000000000000000000F7FFFF71
:10574000FF0800F4FFFFFF0C000000000000000055
:105750000000FDFFFFFF0300D0FFFFFF7F00000000
:1057600000000000000070FFFFFFCF000060FFFF9F
:10577000FFFF040000000000000000F3FFFFFF5FD8
:10578000000000FDFFFFFF5E000000000000003091
:10579000FDFFFFFF0C000000F4FFFFFFFF0800000B
:1057A00000000000E5FFFFFFEF0300000080FFFFA7
:1057B000FFFFDF1600000000C4FFFFFFFF6F0000C7
:1057C000000000FBFFFFFFFFFF8B6787EBFFFFFF82
:1057D000FFFF080000000000C1FFFFFFFFFFFFFF09
:1057E000FFFFFFFFFFFF8F00000000000010FBFF26
:1057F000FFFFFFFFFFFFFFFFFFFFFF0600000000AE
:1058000000000070FFFFFFFFFFFFFFFFFFFFFF3DF6
:10581000000000000000000000B2FFFFFFFFFFFFDC
:10582000FFFFFF7E0000000000000000000000A35A
:10583000FEFFFFFFFFFFFF7D0100000000000000F2
:10584000000000000040A8ECFFEE9C2600000000D5
:10585000000000DDDDDDDDDDDDDDDDDDDDDDDDDD0F
:10586000DDDDDDDDDDDDBDFFFFFFFFFFFFFFFFFF56
:10587000FFFFFFFFFFFFFFFFFFFFCFFFFFFFFFFF68
:10588000FFFFFFFFFFFFFFFFFFFFFFFFFFFFCFFF58
:10589000FFFFFFFFFFFFFFFFFFFFFFFFFFFFFFFF18
:1058A000FFFFCFFFFFFFFFFFFFFFFFFFFFFFFFFF38
:1058B000FFFFFFFFFFFFCFFFFFFFFFFFFFFFFFFF28
:1058C000FFFFFFFFFFFFFFFFFFFFCFFFFFFFFFFF18
:1058D000FFFFFFFFFFFFFFFFFFFFFFFFFFFFCF0007
:1058E000000000000000000000000000000000F2C6
:1058F000FFFFCF00000000000000000000000000DB
:10590000000000FAFFFFCF000000000000000000D0
:1059100000000000000030FFFFFF7F0000000000DB
:1059200000000000000000000000B0FFFFFF1E00AC
:105930000000000000000000000000000000F5FF73
:10594000FFFF070000000000000000000000000052
:105950000000FDFFFFDF000000000000000000006D
:10596000000000000060FFFFFF6F0000000000006B
:10597000000000000000000000D1FFFFFF0D00004C
:1059800000000000000000000000000000F7FFFF22
:10599000FF05000000000000000000000000000003
:1059A00010FEFFFFCF00000000000000000000001C
:1059B0000000000090FFFFFF4F000000000000000B
:1059C0000000000000000000F2FFFFFF0B000000DD
:1059D000000000000000000000000000FAFFFFFFD0
:1059E0000300000000000000000000000000003084
:1059F000FFFFFFAF000000000000000000000000FB
:105A0000000000B0FFFFFF2F0000000000000000BA
:105A100000000000000000F4FFFFFF09000000008C
:105A20000000000000000000000000FCFFFFEF028B
:105A3000000000000000000000000000000060FF07
:105A4000FFFF8F00000000000000000000000000C9
:105A50000000D0FFFFFF1E0000000000000000005B
:105A6000000000000000F7FFFFFF0700000000003B
:105A700000000000000000000010FEFFFFEF01002A
:105A80000000000000000000000000000080FFFF98
:105A9000FF6F000000000000000000000000000098
:105AA00000F2FFFFFF0D00000000000000000000FA
:105AB0000000000000FAFFFFFF05000000000000EA
:105AC000000000000000000030FFFFFFCF000000DA
:105AD000000000000000000000000000B0FFFFFF19
